:020000040800F2
:100000001807002065010008D30B0008250B000825
:10001000D10B000879040008E11800080000000076
:10002000000000000000000000000000A111000816
:100030002907000800000000B90C0008851200081C
:100040007F0100087F0100087F0100087F01000890
:100050007F0100087F0100087F0100087F01000880
:100060007D0800087F0100087F0100087F0100086B
:100070007F0100087F0100087F0100087F01000860
:100080007F0100087F0100087F0100087F01000850
:100090007F0100087F0100087F0100087F01000840
:1000A0007F0100087F0100087F0100087F01000830
:1000B000D91200087F0100087F0100087F010008B5
:1000C0007F0100087F0100087F0100087F01000810
:1000D0007F010008351600087F0100087F01000835
:1000E0007F0100087F0100087F0100087F010008F0
:1000F0007F0100087F0100087F0100087F010008E0
:100100007F0100087F0100087F0100087F010008CF
:100110007F0100087F0100087F0100087F010008BF
:100120007F0100087F0100087F0100087F010008AF
:10013000DFF80CD000F07EF800480047AD2800083A
:1001400018070020EFF30980704780F30988704793
:10015000EFF30880704780F30888704740BA704713
:10016000C0BA70470648804706480047FEE7FEE7EA
:10017000FEE7FEE7FEE7FEE7FEE7FEE7FEE7FEE757
:1001800089120008310100080649074A08685043EF
:1001900043F2390210440860400870470149086082
:1001A00070470000E00000206D4EC641D2B201E071
:1001B00000F8012B491EFBD270470022F6E710B56C
:1001C00013460A4604461946FFF7F0FF204610BDC5
:1001D0002DE9F05F0546002092469B46884606467C
:1001E000814640241BE0284641464746224600F00F
:1001F00042F853465A46C01A914110D31146184648
:10020000224600F029F82D1A67EB01084F462246D6
:100210000120002100F020F817EB00094E41201EBC
:10022000A4F10104DFDC484631462A464346BDE8D6
:10023000F09F0000064C074D06E0E06840F0010327
:1002400094E8070098471034AC42F6D3FFF774FFE8
:100250009C3B0008BC3B0008202A04DB203A00FA43
:1002600002F1002070479140C2F1200320FA03F30D
:10027000194390407047202A04DB203A21FA02F00B
:100280000021704721FA02F3D040C2F120029140D0
:100290000843194670470029816802D041F00101E6
:1002A00001E021F00101816070470029816802D0DE
:1002B00041F4807101E021F4807181607047000099
:1002C0000D4910B5884202D1012144150AE00B49BD
:1002D000884202D10121041504E0094988420AD16B
:1002E0000121CC03204600F017FD2046BDE8104058
:1002F000002100F011BD10BD002401400028014084
:10030000003C0140C06C80B27047000010B54268EC
:100310000E4B0C791A400B6842EA042213434360E7
:1003200083680B4A1340D1E9024222434C7943EAE5
:1003300044031A438260C26A097C22F47002491E97
:10034000C9B242EA0151C16210BD0000FFFEF0FFD8
:10035000FDF7F1FF70B5072409290AD9C568A1F195
:100360000A0606EB4606B440A543B3401D43C560EC
:1003700007E0056901EB4106B440A543B3401D43C6
:1003800005611F23072A09D2446B521E02EB820229
:1003900093409C4391400C43446370BD0D2A09D2A5
:1003A000046BD21F02EB820293409C4391400C43AA
:1003B000046370BDC46A0D3A02EB820293409C4311
:1003C00091400C43C46270BD816841F008018160B6
:1003D00070470029816802D041F4A00101E021F4B6
:1003E000A00181607047816841F00401816070471D
:1003F00010B5054C00212046FFF757FF2046BDE809
:1004000010400021FFF747BF0024014070B586B0BF
:100410004FF4804000F052FC154E3046FFF750FF7D
:100420000121480200F06CFC0124ADF814400025C5
:100430008DF8175005A90F4800F006FB4FF4602017
:10044000CDE902058DF8044000958DF805408DF842
:10045000104069463046FFF759FF01213046FFF74B
:1004600024FF01213046FFF716FF06B070BD0000E3
:1004700000240140000C0140FEE70000F8B50D46E5
:10048000064600244FF4106706221D4938460094A2
:1004900001F012FB1A4801784278C3781143827840
:1004A0001A43114302791143427911430CD104706C
:1004B00008214170DC218170C470047144710146CF
:1004C0000622384601F040FB0D4F0E483C3F042207
:1004D000BE70C7E90D054FF470656946284601F006
:1004E00033FB04226946284601F02EFB04226946AC
:1004F000900101F029FB02F01DFD3C70F8BD0000E9
:100500009C000020785634122DE9F047564C207894
:10051000062823D0A0784FF4427101EB401001F07F
:10052000ADFA222805D0002344220221A07802F04F
:10053000FBFF012602F08AFA4B4D94F90010ED1DE5
:100540000027C0B2B0464FF0030AA5F104090529FF
:100550005FD2DFE801F0060D1F3556000520BDE82B
:10056000F0872F706F70AF70EF7002F067FD78E06A
:1005700002284BD13DA001F011FBA06B017C29703A
:10058000417C6970817CA970C07CE87002F010FE2B
:10059000022034E0052802D006280FD036E039A02A
:1005A00001F0FCFA01F04AFD10B1606A80474EE0AC
:1005B00002F0C0FCE06A804727702AE037A04CE0D8
:1005C000A0690426411C24D0E169B1EB500F20D969
:1005D00038A001F0E3FA297889F80010697889F8E1
:1005E0000110A97889F80210E97889F80310606B86
:1005F000401C606302F0DCFD02F09CFC04202070D3
:1006000007E00426052806D0062825D001F05AFD6B
:1006100006463046A3E7677099F800102A784846E6
:1006200091420CD141786A78914208D18178AA78B8
:10063000914204D199F80300E978884204D0A06A75
:100640000326804723A000E026A001F0A7FA02F0CD
:1006500071FC84F800A0DCE727A001F09FFA02F00B
:1006600069FC84F80080D4E7600000203E205265D9
:10067000636569766520444843505F4F464645525E
:100680000D0A00003E205265636569766520444886
:1006900043505F41434B0D0A000000003E2052656D
:1006A000636569766520444843505F4E41434B0D76
:1006B0000A0000003E204D61696E7461696E73200E
:1006C0007468652049502061646472657373200DFD
:1006D0000A0000003E4950206368616E6765642E21
:1006E0000D0A00003E495020697320636F6E7469E3
:1006F0006E7565642E0D0A003E205265636569764D
:100700006520444843505F4E41434B2C204661696D
:100710006C656420746F206D61696E7461696E2010
:1007200069700D0A000000007047000070B500F00D
:1007300003FAA02001F096FF20B11BA001F02EFAD1
:1007400000F030FD002000F063F81E4DBB281AD0E9
:100750001DA001F023FA00F017FA00242819641CE8
:10076000C178E0B200F072F8052001F08DFEE4B22D
:10077000032CF3D3BB21002000F068F8BDE87040E3
:10078000052001F081BE1AA001F008FA0024661CC1
:10079000F0B200F03DF82919C870052001F074FE90
:1007A000F4B2032CF3D370BD676F74206E6F74685E
:1007B000696E6773206F6E20696963206275730DBF
:1007C0000A000000C9000020204D41432072616EE4
:1007D000646F6D20262073746F726520696E2045EA
:1007E0004550524F4D2E2E2E2E2E2E0D0A0000005B
:1007F000204D414320616C726561647920696E20EF
:10080000454550524F4D2E2E2E2E2E2E0D0A0000F5
:1008100010B5044601F0B0FFA02001F07FFF01F009
:10082000E3FF204601F07AFF01F0DEFF01F0A4FFB4
:10083000A12001F073FF01F0D7FF01F049FF04464A
:1008400001F02AFF01F0B8FF204610BD70B50D463B
:10085000044601F091FFA02001F060FF01F0C4FF09
:10086000204601F05BFF01F0BFFF284601F056FF74
:1008700001F0BAFFBDE8704001F09EBF042000F017
:1008800001B80000064A014600201268044B0A40E5
:1008900014331B680B4202D0002A00D0012070479D
:1008A0000004014030B51A498379026853B30B68DC
:1008B00093430B600A1D13680468A3431360027915
:1008C0000A441368046823431360114A083213680A
:1008D0000468A3431360131D1C680568AC431C60C7
:1008E0004479102C05D021440A68006802430A604C
:1008F00030BD116804682143116019680068014324
:10090000196030BD0079084401689143016030BD31
:10091000000401400149C860704700000020024007
:1009200070B505464FF43026304600F067F80428CD
:1009300011D1094C206940F00200206165612069F5
:1009400040F040002061304600F058F8216941F63F
:10095000FD721140216170BD002002400849042051
:10096000CA68D20701D001207047CA68520701D572
:1009700002207047C968C906FBD5032070470000F4
:10098000002002400248016941F080010161704786
:10099000002002402DE9F841064600204FF40057A0
:1009A00000900D46384600F029F8042816D10C4C6A
:1009B000206940F0010020613580B846384600F0DB
:1009C0001DF8BF1E042806D1B61C280C00963080E6
:1009D000404600F013F8216939402161BDE8F881F3
:1009E00000200240034802494160034941607047CA
:1009F0002301674500200240AB89EFCD00B50346D7
:100A0000FFF7ACFF03E000BFFFF7A8FF5B1E012864
:100A100003D0002B00D1052000BD002BF4D1FAE754
:100A200010B58A0721F003040649130F21440F2251
:100A30008C689A4094438C608A68984002438A602C
:100A400010BD000000000140F0B5CA78002502F09A
:100A50000F03D20601D58A7813430C784FF00F0E9E
:100A60000122ECB1D0F800400F8802FA05F63740B9
:100A7000B74211D14FEA850C0EFA0CF724EA0707AA
:100A800003FA0CF43C43CF78282F02D0482F02D031
:100A900002E0466100E006616D1C082DE4D30460AD
:100AA0000C88FF2C1ED944685FF0000606F1080789
:100AB00002FA07F50F882F40AF420FD14FEA860C9C
:100AC0000EFA0CF7BC4303FA0CF73C43CF78282FFF
:100AD00000D14561CF78482F00D10561761C082EE2
:100AE000E4D34460F0BD416170470161704700008C
:100AF00010B50B4C0523012208212046FFF72AFCE4
:100B00002046FFF761FC2046FFF76DFC01212046DF
:100B1000FFF75FFC2046BDE81040FFF7F3BB000085
:100B200000240140FEE7000002494AF6AA200860BE
:100B3000704700000030004008B50121082000F097
:100B4000DFF814208DF8030003208DF80200C02088
:100B5000ADF8000069460348FFF776FF01F02CFE70
:100B600008BD0000000C0140064C0546284600F078
:100B700049F900F06FFF21780129F7D101F058FE03
:100B8000F4E70000B400002070B5FFF73FFC0D4E05
:100B9000002400BFFFF7ACFFFFF700FBFFF7F4FAFC
:100BA0003519C0B2E870FFF7F9FAE97806A000F04D
:100BB000F5FF641CE4B2032CECD3BDE87040FFF7F2
:100BC00017BC0000C9000020253032783A00000030
:100BD000FEE77047F0B50F21C478027801234FF08B
:100BE000E026DCB1124C2468457804F4E064C4F5D6
:100BF000E064240AC4F10407E1408478BD400C405D
:100C00002C4321010B4C1155007800F01F018B4043
:100C1000400906EB8000C0F80031F0BD02F01F0073
:100C20008340500906EB8000C0F88031F0BD000021
:100C30000CED00E000E400E00249084302490860CE
:100C4000704700000000FA050CED00E0024A114078
:100C5000014302480160704780FFFF1F08ED00E07C
:100C600038B54FF4C060FFF7E7FF25208DF800008E
:100C700000258DF8015001248DF802408DF80340C5
:100C80006846FFF7A7FF08208DF800008DF80140A7
:100C90008DF802408DF803406846FFF79BFF1C204B
:100CA0008DF800008DF801508DF802508DF803404A
:100CB0006846FFF78FFF38BD70470000034A516850
:100CC00021F4404101435160704700000010024090
:100CD000044A0029D16901D0014300E08143D16178
:100CE0007047000000100240044A0029116901D039
:100CF000014300E081431161704700000010024091
:100D0000044A0029916901D0014300E081439161C7
:100D10007047000000100240044A0029D16801D049
:100D2000014300E08143D1607047000000100240A1
:100D30000C48016841F00101016041680A4A114014
:100D400041600168094A11400160016821F4802175
:100D50000160416821F4FE0141604FF41F01816090
:100D600070470000001002400000FFF8FFFFF6FE91
:100D700030B520494A6812F00C031F4A03D0042BF7
:100D800001D0082B22D002604A680F231B4C03EAD3
:100D90001212A35C0268DA4042604B68072505EA3C
:100DA0001323E35C22FA03F383604B6805EAD32341
:100DB000E35C22FA03F2C2604968032303EA91313B
:100DC000231F595CB2FBF1F1016130BD4A684B68E9
:100DD00002F470124FF0020413F4803F04EB9242CD
:100DE00002D04B689B0301D5054B00E0024B5A43F0
:100DF000C9E700000010024000127A00180000202D
:100E000000093D002DE9F05F714D834600272878E9
:100E1000012600286ED02F704FF4A85000F02EFE4F
:100E20006C4C00F0F0004FF4B85A2070504600F0BF
:100E300025FE60704FF40278404600F01FFE00F07F
:100E40001F00A0704FF4427000F018FEE0704FF4E5
:100E50003859484600F012FE20716178504600F083
:100E600053FEA07800F00F0108EB4B1000F04CFE91
:100E7000207940F00101484600F046FE2079C00785
:100E800024D0687898B1484600F0F8FDC0070ED02D
:100E900051490020FFF7F2FAFFF736FB0428FBD197
:100EA000584601F047F9584602F0C0FB6F702078B1
:100EB000010601D4800605D5584601F03BF9584695
:100EC00000F0BCFD6078012802D013E06E70DAE714
:100ED000A078810701D4082805D1584601F02AF9E5
:100EE000584602F0A3FBA078410700D52E71C0063A
:100EF00000D56E712879002867D04FF400782F71E3
:100F0000EE70444641463448FFF757F922463249CD
:100F1000584601F069FE86B2FFF764FD3520FFF701
:100F2000F9FC2C4D103D6868810501D1FFF7F8FCF4
:100F300000241CE02848015D2044427841EA022157
:100F40008278C07841EA024141EA00676868394620
:100F50002044FFF71FFD0428F8D168680059B84203
:100F600001D01EA000E022A000F018FE241DB44213
:100F7000E0D3FFF707FD686846453044686024D237
:100F80001C4901441CA0696000F008FEFFF72AFD1F
:100F90003520FFF7BFFC1F4C1F4D2046FFF7C0FC5C
:100FA0000428FAD129462046FFF7F4FC0428F9D09A
:100FB0002068A842F1D1FFF7E5FC18A0216800F0F5
:100FC000EDFDBDE8F05F00F0EDB8BDE8F09F00007A
:100FD00008010020C40000201601002043524320D5
:100FE0004572726F722E2E2E2E2E2E0D0A000000CC
:100FF0002E0000000090FFF70D0A41707020646120
:101000007461203D2025642042797465732E2E2E54
:101010000D0A000000FC01087856341230782530A3
:1010200032580D0A0000000010210148FFF75DBD95
:101030000008014010210148FFF755BD000801409C
:101040000029018802D041F0400101E021F0400177
:101050000180704730B587B0012141F20400FFF7ED
:101060004FFE0020ADF80000ADF80800ADF80C0010
:101070004FF48271ADF80400ADF80210ADF806002F
:10108000ADF80E004FF400710720174CADF80A10B0
:10109000ADF810006946204600F039F8E020ADF8C0
:1010A000140003208DF816001820104D8DF817003D
:1010B00005A92846FFF7C8FC1021ADF814108DF8DB
:1010C000171005A92846FFF7BFFC10212846FFF797
:1010D0000CFD0121204600F049F801212046FFF7D0
:1010E000AFFF07B030BD00000030014000080140F4
:1010F000012080F310887047002080F3108870472B
:101100000246002012890A4200D00120704730B503
:1011100002884C8802F441530A88CD8822438C8887
:101120002C4322430C8922434C8922438C8922433D
:10113000CC8922431A430280828B22F4006282838C
:10114000098A018230BD000010B5074C2089800754
:10115000FCD5FF20A08180212046FFF7D1FF012888
:10116000F9D0A089C0B210BD0030014000298188AB
:1011700002D041F0040101E021F0040181807047B8
:1011800010B5064C21898907FCD5A0818021204615
:10119000FFF7B6FF0128F9D0A08910BD003001404B
:1011A0007047000071B605480168054A01F4E06126
:1011B00011430160BFF3408FFEE700000CED00E03B
:1011C0000400FA050CB5002126480191009102683F
:1011D00042F4803202604FF4A063026802F40032ED
:1011E0000092019A521C0192009A12B9019A9A42F5
:1011F000F3D10268920333D5012100911A490A689C
:1012000042F010020A600A6822F003020A600A68CB
:1012100042F002020A6041684160416841604168F1
:1012200041F480614160416821F47C114160416872
:1012300041F4E8114160016841F08071016001688A
:101240008901FCD5416821F003014160416841F00A
:10125000020141604168C1F381010229FAD10CBD4C
:1012600000910CBD00100240002002404FF0E02130
:101270000428086903D020F004000861704740F09A
:101280000400FAE7704700000F4810B5016841F00C
:101290000101016041680D4A1140416001680C4A3A
:1012A00011400160016821F480210160416821F44E
:1012B000FE0141604FF41F018160FFF783FF054984
:1012C0004FF00060086010BD001002400000FFF801
:1012D000FFFFF6FE08ED00E02DE9F0474FF08049F2
:1012E0000121484600F044F9002857D02C4C4FF417
:1012F0007A7801276088002504F11406404513D34D
:101300002078401CC0B2207065803C280ED3257028
:101310002079401CC0B22071B7713C2806D32571DA
:10132000E088401CE08001E0401C6080608A642806
:1013300009D0401C6082208A41F28831884205D25F
:10134000401C208206E037706582F4E72582207A0F
:10135000401C2072207A032803D9FFF7E5FBF571C2
:101360002572E089A0F59C41203908D1E581F0780B
:10137000012801D0B77004E0B570F57001E0401CA1
:10138000E081A089404501D9A58101E0401CA081F0
:101390004846BDE8F047012100F025B8BDE8F087D8
:1013A000F40000203EB501210846FFF791FC09201A
:1013B000ADF804004FF4E150ADF800000020ADF8A6
:1013C0000600ADF802004FF080446946204600F068
:1013D000E3F801221146204600F0D6F8012120460C
:1013E00000F004F83EBDC94301827047002901881E
:1013F00002D041F0010101E021F0010101807047BC
:101400004B4910B5884202D10121C41486E0B0F1E5
:10141000804F09D0474988420DD101210220FFF7B2
:1014200063FC0021022064E001210846FFF75CFC18
:10143000002101205DE04049884206D101210420BD
:10144000FFF752FC0021042053E03C49884206D1BA
:1014500001210820FFF748FC0021082049E0384915
:10146000884206D101211020FFF73EFC0021102008
:101470003FE03449884206D101212020FFF734FCA7
:101480000021202035E03049884202D10121441456
:1014900044E02E49884202D10121CC043EE02C498F
:1014A000884202D101210C0538E02A49884202D144
:1014B00001214C0532E02849884206D10121402013
:1014C000FFF712FC0021402013E02449884206D196
:1014D00001218020FFF708FC0021802009E020493D
:1014E00088420AD1841501212046FFF7FDFB002127
:1014F0002046BDE81040FFF7F7BB1A49884202D1E9
:1015000001210C040AE01849884202D101214C044F
:1015100004E0164988420AD101218C042046FFF7D5
:10152000FBFB2046BDE810400021FFF7F5BB10BDD6
:10153000002C01400004004000080040000C004066
:10154000001000400014004000340140004C0140F5
:10155000005001400054014000180040001C0040B1
:10156000002000400040014000440140004801408C
:1015700002460020138A92890B4202EA010202D03D
:10158000002A00D001207047002A828901D00A4336
:1015900000E08A438281704730B502881B4B1C4CA7
:1015A00098420DD0A0420BD0B0F1804F08D0194D19
:1015B000A84205D0184DA84202D0184DA84203D128
:1015C00022F070054A882A43154DA84206D0154DD1
:1015D000A84203D022F44075CA882A4302808A8830
:1015E00082850A88028598420AD0A04208D00E4A15
:1015F000904205D00D4A904202D00D4A904201D14E
:10160000097A01860121818230BD0000002C014051
:10161000003401400004004000080040000C00407D
:101620000010004000140040004001400044014010
:101630000048014010B5124C2021204600F07AF8F5
:101640000028F9D0204600F0EFF80146204600F0CF
:10165000EFF8204600F0E8F8732805D0204600F0A7
:10166000E3F8612802D004E0FFF79CFD0549012062
:1016700008702046BDE81040202100F005B80000A9
:1016800000380140B4000020C9430180704710B504
:10169000038A4FF2FF0213400A884C8822438C8849
:1016A000C9880C4322431A43028210BD0029818954
:1016B00002D041F4005101E021F4005181817047D2
:1016C000174910B588420AD101218C032046FFF743
:1016D00023FB2046BDE810400021FFF71DBB114948
:1016E000884202D101214C0410E00F49884202D106
:1016F00001218C040AE00D49884202D10121CC0469
:1017000004E00B4988420AD101210C052046FFF76D
:10171000EBFA2046BDE810400021FFF7E5BA10BD06
:10172000003801400044004000480040004C0040A8
:10173000005000400246002012880A4200D00120DA
:10174000704710B5C1F3421301F01F040121A140FD
:10175000012B07D0022B07D01430002A026805D0D5
:101760000A4304E00C30F8E71030F6E78A430260E1
:1017700010BD000030B50446008A85B00D464CF619
:10178000FF710840E98801432182A1894EF6F310D8
:101790000140A8882A8910436A890A431043A0811E
:1017A000A08A4FF6FF410840A9890143A1826846FB
:1017B000FFF7DEFA1B48844201D1039800E002984B
:1017C000A1890904002900EBC00101EB0010296880
:1017D00002DA4FEA410101E04FEA8101B0FBF1F08A
:1017E0006422B0FBF2F14FEA01114FEA11136FF0DE
:1017F00018056B4300EB8300A3891D044FF03203EF
:1018000006D503EBC000B0FBF2F000F0070005E0E6
:1018100003EB0010B0FBF2F000F00F000843208152
:1018200005B030BD003801408088C0F30800704723
:10183000C1F308018180704770B5054688B0012169
:1018400044F20400FFF75CFA4FF40074ADF8104066
:1018500001208DF8120018201F4E8DF8130004A9E6
:101860003046FFF7F1F86000ADF8100004208DF865
:10187000130004A93046FFF7E7F80020ADF8040094
:10188000ADF806000095ADF80800ADF818400C2141
:10189000ADF81400114CADF80C00ADF80A10ADF81D
:1018A0001600ADF81A0005A92046FFF7F0FE6946BC
:1018B0002046FFF75FFF01212046FFF7F7FE0122D8
:1018C00040F225512046FFF73CFF01212046FFF75B
:1018D000EDFE08B070BD0000000801400038014076
:1018E000FEE70000FEB501210420FFF709FA0820F9
:1018F000ADF8000001248DF802401020144E8DF840
:10190000030069463046FFF79FF808213046FFF78D
:10191000EAF80425ADF8005003208DF802004820B5
:101920008DF8030069463046FFF78EF8022100204B
:10193000FFF776F800208DF808000C208DF80900DC
:1019400001958DF80A4001A8FEF7ACFFFEBD00002E
:101950000008014010B5044606220C494FF41060FF
:1019600000F0F2F80A490020FEF788FD0A49094A0A
:10197000084601F08DFA00BFFEF7C6FD0428FBD132
:101980002046BDE8104001F051BE0000C900002013
:1019900016010020052A0008D129000870B5174C4F
:1019A000054608212046FFF79EF8322000F06CFD26
:1019B00008212046FFF799F8C82000F065FDF021C6
:1019C0004FF4A85000F0A0F80D4C4FF4B8506178D7
:1019D00000F09AF8A07800F00F014FF4027000EBCD
:1019E000451000F091F802F076F84FF43854204694
:1019F00000F044F8C007FAD070BD000000080140B4
:101A0000C400002010B50749074801F059FA0749FA
:101A1000074801F067FABDE810400649064801F0A2
:101A200073BA0000F9100008F1100008291000082E
:101A300035100008811100084911000810B504464E
:101A4000FFF7E0FF2046FFF7A9FF2046BDE8104062
:101A5000FFF780BF70B5074CE079002808D0064D2D
:101A6000287A042804D1FFF75FF80020E07128727B
:101A700070BD000008010020F400002070B50D4C7E
:101A80000546A068804720698047E169C5F30740A3
:101A90008847E169C5F307208847E169E8B28847CC
:101AA000A0698047054660698047E068804728460E
:101AB00070BD0000400000202DE9F041114C0646A9
:101AC0001746A06888460025804720698047E1695D
:101AD000C6F307408847E169C6F307208847E169F4
:101AE000F0B2884705E0A069804708F805006D1C42
:101AF000ADB2BD42F7D360698047E068BDE8F04110
:101B0000004700004000002070B50E4C05460E4610
:101B1000A06880472069804745F00405E169C5F366
:101B200007408847E169C5F307208847E169E8B2C3
:101B30008847E1693046884760698047E068BDE8CA
:101B400070400047400000202DE9F041124C06464D
:101B50001746A0688846002580472069804746F0E0
:101B60000406E169C6F307408847E169C6F3072028
:101B70008847E169F0B2884706E000BFE16918F8DC
:101B8000050088476D1CADB2BD42F7D36069804740
:101B9000E068BDE8F0410047400000200FB4054B6D
:101BA00010B503A9044A029800F018F810BC5DF8BB
:101BB00014FB0000F1240008B000002002E008C877
:101BC000121F08C1002AFAD170477047002001E0B7
:101BD00001C1121F002AFBD1704700002DE9FF4F01
:101BE0008DB00F4605460026DEE1252874D100247D
:101BF0006D1CF149A246A14601222B78203B02FA36
:101C000003F0084202D004436D1CF6E728782A2826
:101C100010D06FF02F022878A0F13001092915D8D3
:101C20000AEB8A0102EB410144F0020400EB010AD5
:101C30006D1CF0E757F804ABBAF1000F03DA44F477
:101C40000054CAF1000A44F002046D1C28782E28C2
:101C500017D115F8010F44F004042A280ED06FF0B4
:101C60002F022878A0F1300109290AD809EB89014F
:101C700002EB410100EB01096D1CF2E757F8049BF0
:101C80006D1C28786C280FD006DC4C2817D06828EB
:101C90000DD06A2814D104E0742810D07A280FD10E
:101CA0000DE044F400140AE044F4801401E044F42C
:101CB00040146978814202D16D1C04F580146D1CBA
:101CC0002A786E2A20D00DDC632A33D005DC002A66
:101CD0006FD0582A12D1A2E011E0642A6AD0692A92
:101CE0000CD167E0732A2FD004DC6F2A6FD0702AE2
:101CF00004D199E0752A6BD0782A6AD01046DDE9C4
:101D00000F129047761C4EE1C4F30250022806D011
:101D100003280AD0042801CF0AD0066043E101CF8E
:101D20004FEAE671C0E900613DE101CF06803AE18A
:101D3000067038E117F8040B8DF8000000208DF8CC
:101D40000100EB46012003E057F804BB4FF0FF30E1
:101D500061074FF0000102D40DE008F1010188464F
:101D600049450FDA8045F8DB1BF808100029F4D14B
:101D700008E008F1010188468142FADB1BF80810EF
:101D80000029F6D1DDE90F23AAEB080081462146A0
:101D900000F03BF9304400EB080604E0DDE90F12E7
:101DA0001BF8010B9047B8F10108F7D221464846CD
:101DB000F4E0FDE00A21C4F302534FF0000B089158
:101DC000022B07D001CFC117032B09D00AE034E062
:101DD00023E024E0FF1D27F00707F7E8020105E0F4
:101DE00000B2C117042B01D140B2C117002907DA94
:101DF0004FF0000CD0EB0C006CEB01012D2302E046
:101E0000230504D52B238DF82430012303E0E307B9
:101E100001D02023F7E7984650E00A210EE0102079
:101E20004FF0000B08900CE010214FF0000B44F035
:101E300004044FF00809089103E008214FF0000B5B
:101E40000891C4F30253022B04D001CF0021032BCD
:101E500006D006E0FF1D27F00707F7E8020103E0C0
:101E600080B2042B00D1C0B24FF00008230725D563
:101E7000702A2AD0DDF820C08CF0100C5CEA0B0C24
:101E800009D150EA010306D030238DF824308DF8B3
:101E9000252002239846DDF820C08CF0080C5CEA6F
:101EA0000B0C0BD150EA010301D1630706D5302397
:101EB0008DF824304FF00108A9F10109582A09D002
:101EC0003EA20B9208AA0A9211E040238DF824301A
:101ED0000123DFE73EA2F4E75B46089AFEF778F9B4
:101EE0000B9B9B5C0A9AA2F101020A92137050EAC2
:101EF0000102F1D10A98ADEB000000F1200B600760
:101F000002D524F4803401E04FF00109D94502DD07
:101F1000A9EB0B0000E0002000EB0B01414408900E
:101F2000AAEB010AE00306D4DDE90F23214650465F
:101F300000F06BF80644002008E009A911F8090038
:101F4000DDE90F129047761C09F1010081464045FA
:101F5000F3DBE0030CD5DDE90F232146504600F00A
:101F600054F8064404E0DDE90F1230209047761C57
:101F70000899481E08900029F5DC08E00A980A999B
:101F80000078491C0A91DDE90F129047761CBBF1DD
:101F90000001ABF1010BF1DC21465046DDE90F23D6
:101FA00000F020F806446D1C287800287FF41DAE50
:101FB00011B03046BDE8F08F0928010030313233CE
:101FC0003435363738396162636465660000000075
:101FD000303132333435363738394142434445465F
:101FE000000000002DE9F041044600251E4617467A
:101FF000880405D406E039462020B04705F10105E4
:10200000641EF8D52846BDE8F0812DE9F04104466C
:1020100000251E469046C80301D5302700E0202742
:10202000880405D506E041463846B04705F101056C
:10203000641EF8D52846BDE8F0810000F8B54FF4DD
:10204000D8563046FFF71AFD054603213046FFF704
:102050005BFD0F4B41F28830DC1F009011220DA177
:10206000A07801F0BFF9074629463046FFF74CFD3E
:102070000D3708D000F068FFE069E169091A02290C
:10208000FBD30020F8BD08A0FFF788FD0120F8BDB4
:1020900067000020434845434B5F49505F434F4E24
:1020A000464C4943540000000D0A3E2043686563D6
:1020B0006B206C6561736564204950202D204F4B67
:1020C0000D0A000070B51A4C0125204694F9011044
:1020D000002690F90000022917DAD4E9072191427D
:1020E00023D2012804D0022805D0042805D102E01B
:1020F00000F0A4FF01E001F05BF8E661E0690A305E
:1021000020626078401C60700FE0012804D0022833
:1021100005D0042807D102E02670002503E000F076
:102120008DFF0120207000F005FF284670BD0000E3
:102130006000002070B50446082802D94FF0FF3037
:1021400070BD4FF4847000EB441005461021FFF77A
:10215000DBFC2846FFF792FC0028FAD14FF402700E
:1021600000EB44101F21FFF7CFFC0C480121A140D8
:1021700082888A430A498280002021F81400074996
:10218000891D08554FF4427000EB44142046FFF7B8
:1021900075FC0028FAD1012070BD00002800002045
:1021A000E40000202DE9F04116460F4604460828B9
:1021B00003D94FF0FF30BDE8F08160014FF0010816
:1021C0000830FFF75BFC00F00F00012802D06FF031
:1021D0000400F0E74FF4427000EB44100546FFF7AF
:1021E0004DFC132802D06FF00200E4E738787978CC
:1021F000BA7801EB002102EB012100EB0120411C28
:102200002CD058B36EB340F6084000EB44100422C3
:102210003946FFF799FC41F20800310A00EB4410FF
:10222000FFF772FC41F20810F1B200EB4410FFF727
:102230006BFC4FF4847000EB441006460421FFF75A
:1022400063FC3046FFF71AFC0028FAD1124908FA5D
:1022500004F04988084213D00020ACE76FF00B006F
:10226000A9E76FF00A00A6E72046FFF707FC000782
:102270000AD520460821FFF747FC6FF00C009AE7CB
:102280004FF4027000EB44142846FFF7F7FB1728C1
:10229000EAD101208FE700002800002010B50C468D
:1022A00006281ED2DFE800F003070B1014180846BA
:1022B00001F046FB13E0084601F0B4FA0FE008789D
:1022C000BDE8104001F068BB01F0D8FA207006E0CC
:1022D000084601F073FB02E0084601F0D2FA002044
:1022E00010BD4FF0FF3010BD2DE9F0410C4600212C
:1022F00002464F1E08464FF498554FF4A056102A38
:1023000061D2DFE802F0080B17131A1E222C3643A5
:10231000464A574E535A01F068FB4BE014B1204631
:1023200004F10801BDE8F04101F0BFBA208801F0D6
:1023300048FA3FE001F058FA05E0208801F0F2FA8F
:1023400038E001F060FA208034E02088010A284655
:10235000FFF7DAFB21783046FFF7D6FB2AE030465C
:10236000FFF78CFB06462846FFF788FB06EB0020AC
:10237000E9E7164882782270C27862700279A2700A
:102380004279E27080792071617113E001F0A3FB62
:1023900010E0204601F0B4FB0CE0204601F05FFBAA
:1023A00008E02078BDE8F04101F0CFBB01F087FBE9
:1023B00005E020700020BDE8F08101F077FBC0B29D
:1023C00041B2491CF5D13846F5E700004000002035
:1023D00010B5042209494FF47060FFF7B5FB0749B7
:1023E000042208314FF4A060FFF7AEFB034904223A
:1023F000091DBDE810409001FFF7A6BB6700002053
:1024000010B580210020FFF77FFB0020FFF736FB8F
:10241000BDE81040062202494FF41060FFF794BB5C
:102420009C00002010B580210020FFF76DFB0020EC
:10243000FFF724FBFFF7CCFFBDE81040062202495E
:102440004FF41060FFF780BB9C00002010B56FF0C8
:102450000400FEF70BFF094809490068B0FBF1F0E2
:10246000C1B2084801EB41020170C2EBC1114FF645
:10247000FF7202EAC101418010BD0000000000208F
:1024800000127A00AC0000200B49498848434FF005
:10249000E021486100228A61086940F0010008617A
:1024A0000869C30701D0C003FAD5086920F001000C
:1024B00008618A6170470000AC0000200B49097870
:1024C00048434FF0E021486100228A61086940F0EA
:1024D000010008610869C30701D0C003FAD5086983
:1024E00020F0010008618A6170470000AC00002004
:1024F00070B5074D0446C1B22846FFF799F940214F
:102500002846FFF717F90028F9D0204670BD0000D3
:102510000038014004490A7802704A7842708A788B
:102520008270C978C17070477300002004490A782E
:1025300002704A7842708A788270C978C170704798
:102540006B00002004490A7802704A7842708A7849
:102550008270C978C17070476700002004490A780A
:1025600002704A7842708A788270C978C170704768
:102570006F0000202DE9F04142F2086101EB4015A7
:1025800042F20871002601EB40142846FFF776FA64
:1025900007462046FFF772FA00EB072007043F0CBE
:1025A00009D02846FFF76AFA06462046FFF766FA82
:1025B00000EB062086B2BE42E7D13046BDE8F0818E
:1025C0002DE9F04142F2080101EB401542F20811F9
:1025D000002601EB40142846FFF750FA0746204634
:1025E000FFF74CFA00EB072007043F0C09D0284600
:1025F000FFF744FA06462046FFF740FA00EB0620B4
:1026000086B2BE42E7D13046BDE8F08170B5114CCC
:102610001148FFF755F84FF08040FEF7F1FEFEF746
:1026200087FB72B64FF4E0414FF00060FEF70EFBFF
:1026300020680A490840B0F1005F0AD16068084D7F
:10264000A860E8602068FDF786FDE868BDE8704096
:10265000004770BD00700008003801400000FE2FE8
:10266000B400002010B50B490446086800060ED5DA
:10267000086840060BD500F07FF8204600F04EF8C1
:1026800000F0B2F8044600F097F8204610BD012093
:1026900010BD0000080C014010B50C4C80212046F4
:1026A000FEF723FA0A20FFF709FF40212046FEF734
:1026B0001CFA0A20FFF702FF40212046FEF713FA1A
:1026C000BDE810400A20FFF7F9BE0000000C0140F1
:1026D0002DE9F0410024104E0F4F2546083E6006BC
:1026E000040E40213046FEF700FA0A20FFF7E6FE0E
:1026F0003868000601D5641CE4B240213046FEF77C
:10270000F2F90A20FFF7DAFE6D1CEDB2082DE6D3D0
:102710002046BDE8F0810000080C014070B5154E60
:102720000546002428064FF08001304602D5FEF70A
:10273000DCF901E0FEF7D7F90A20FFF7BFFE4021E0
:102740003046FEF7D2F90A20FFF7B8FE40213046A6
:10275000FEF7C9F9072C03D180213046FEF7C5F9F1
:102760006806050E0A20FFF7A9FE641CE4B2082CD7
:10277000D8D370BD000C014010B50E4C802120460E
:10278000FEF7B3F940212046FEF7AFF90A20FFF724
:1027900095FE80212046FEF7A6F90A20FFF78EFE5F
:1027A00040212046FEF79FF9BDE810400A20FFF7C0
:1027B00085BE0000000C014010B50A4C8021204667
:1027C000FEF791F940212046FEF78FF90A20FFF726
:1027D00075FE80212046FEF788F9BDE810400A20EA
:1027E000FFF76CBE000C014070B5104D80212846EB
:1027F000FEF77BF90A20FFF761FE40212846FEF72D
:1028000074F90A20FFF75AFE0848083000680006ED
:1028100001D5012400E0002440212846FEF763F999
:102820000A20FFF74BFE204670BD0000000C01405F
:1028300070B5144C2078012823D1134D13A0FFF755
:10284000ADF91848FEF73CFF4FF08040FEF7D8FD89
:10285000FEF76EFA72B64FF4E0414FF00060FEF7FB
:10286000F5F9286810490840B0F1005F09D168689F
:10287000A060E0602868FDF76EFCE068BDE870408D
:10288000004770BDB4000020007000084578656303
:1028900075746520757365722050726F6772616D13
:1028A0000D0A0000003801400000FE2F0A4810B554
:1028B00000680A49884202D0FFF7A8FE09E0084CE8
:1028C000207800F077F907A0FFF768F92078FEF785
:1028D0004BF9002010BD000000FC01082143658772
:1028E000AA0000204941502050726F6772616D202C
:1028F000737461727465642E2E2E2E2E0D0A0000E4
:102900001CB5062269464FF41060FFF7D5F82F4A30
:102910000120916B08704870062088700020C870F4
:10292000536B1B0E0B71536B1B0C4B71938E1B0A5D
:102930008B7192F83430CB71916B802308818B724C
:10294000C872916B02F13C03087348738873C873B3
:10295000087448748874C874087548758875C87593
:10296000087648768876C8761C780C775C784C7741
:102970009C788C77DC78CC771C7981F820405B7967
:1029800081F821300623CC185B1CDBB22077102B9A
:10299000F9D3936B00215C18491CC9B284F82C0050
:1029A0004029F8D3936B00215C18491CC9B284F804
:1029B0006C008029F8D3906B6321822200F8EC1F11
:1029C000427053228270C1701CBD00006000002064
:1029D00010B50B4CA01DFFF7B5FD04F10E00FFF77D
:1029E000A5FD04F10A00FFF7B9FD04F11200FFF79D
:1029F00091FD0220A075BDE8104000F013B8000062
:102A0000C900002001A0FFF7C9F8FEE7434F4E467A
:102A10004C4943542049502066726F6D204448430E
:102A2000500D0A0000B589B00020009006490190C1
:102A3000FFF734FC02A90120FFF730FC69460820AB
:102A4000FFF752FC09B000BDC900002070B54C4C26
:102A500086B00026A078FFF78DFD020037D005A8CC
:102A6000009003ABA078A16B00F030F985B29DF81F
:102A70000F00BDF814108DE823009DF80E309DF86E
:102A80000D209DF80C103FA0FFF788F8BDF814004A
:102A900043283AD1A06B04F13C01027F0B789A42A3
:102AA00015D1437F4A78934211D1837F8A7893422C
:102AB0000DD1C37FCA78934209D190F820200B79B9
:102AC0009A4204D190F8212049798A4202D000200C
:102AD00006B070BDF0304119F03914E00278332AA5
:102AE00034D007DCAAB1012A18D0032A1AD0062A4A
:102AF00006D11CE0352A0ED0362A34D0FF2A06D063
:102B00004278801C10448842E8D370B2E0E708465F
:102B1000F9E7401CF7E78678C01CF4E7184A837889
:102B20000F3223E0164B427885780B3303E0144BC9
:102B30004278857813331D70C5785D7005799D7076
:102B40004579801D1044DD70001FDCE78278A261AA
:102B5000C37803EB0222A2610379801D03EB0222FA
:102B60000A22A261CFE7064A837830321370C37815
:102B70005370037993704379801DD370C3E70000CD
:102B80006000002044484350206D657373616765A1
:102B9000203A2025642E25642E25642E25642825C0
:102BA00064292025642072656365697665642E203A
:102BB0000D0A000010B50446FEF766FB4FF4E13045
:102BC000FEF73AFEFEF78EFEFEF744FAFFF73EFCF4
:102BD000FEF7E8FBFEF744F8FDF7A8FD2046BDE848
:102BE0001040FEF72BBF00002DE9F74F14460546B5
:102BF000082803D94FF0FF30BDE8FE8F6801012699
:102C00000830FEF73BFF00F00F00012801D0B01F95
:102C1000F2E724B341F6086000EB4510FEF72EFF03
:102C20004FF6FF7101EA8020A04200D204464FF423
:102C3000427000EB451841F60870DFF88CA000EBFD
:102C4000451B06FA05F92846FFF794FC0646404660
:102C5000FEF714FF172816D01C2803D00DE06FF0E4
:102C60000D00C9E7CEB92846FFF7AAFC074658462B
:102C7000FEF704FFB7EB802F05D12846FFF75AFA7D
:102C80006FF00600B8E7BAF8021019EA010F02D097
:102C90001EB90020B0E7002ED5D0A64200D234469F
:102CA00022462846019900F007FD4FF4847000EB9E
:102CB000451005464021FEF727FF2846FEF7DEFEB9
:102CC0000028FAD1204697E7280000202DE9FF4F81
:102CD000002583B0984617460446082803D9681E85
:102CE00007B0BDE8F08F60014FF0010A0830FEF731
:102CF000C5FE834600F00F00022804D0042802D04D
:102D00006FF00400ECE72FB1DFF87C9139F8140084
:102D100018B11EE06FF00D00E2E74FF4427000EBD7
:102D200044160AFA04FA2046FFF724FC054630460A
:102D3000FEF7A4FE30B1554949881AEA010F06D0C2
:102D40001DB106E06FF00300CAE70020C8E7002DC0
:102D5000E9D0DFF838A100210AF1060A4FF48470A7
:102D60000AF804100BF007014FF0800B00EB44163B
:102D7000022920D004295AD02946204600F0CCFC54
:102D800029F8145030464021FEF7BEFE3046FEF7CB
:102D900075FE0028FAD139F81410491B0904090CF2
:102DA00029F8141005D01AF8041041F001010AF8AE
:102DB0000410284694E739F814004D4680BB0822D9
:102DC0006946204600F078FC30464021FEF79CFE24
:102DD0003046FEF753FE0028FAD19DF8001088F81F
:102DE00000109DF8011088F801109DF8021088F875
:102DF00002109DF8031088F8031010999DF8040044
:102E000008809DF8051001EB0020109908809DF8BE
:102E100006009DF8071001EB002025F814002BE0B8
:102E20002CE02A462046049900F046FCAAE739F82F
:102E300014004D4610BB02226946204600F03CFCBF
:102E400030464021FEF760FE3046FEF717FE0028B0
:102E5000FAD19DF800009DF8011001EB002080B22E
:102E600040F2EA5125F81400884205D92046FFF7C0
:102E700061F96FF47A7033E70AF804B035F814504A
:102E8000BD42CED93D46CCE7E4000020280000201A
:102E900010B5084B064C5C62074C9C62074CDC6228
:102EA00000B1586201B19962002A00D0DA6210BD07
:102EB000D123000860000020252400080124000818
:102EC000054A18B111B1C2E9020170470348906088
:102ED0000348D0607047000040000020E137000840
:102EE000E3370008054A18B111B1C2E9040170477F
:102EF0000348106103485061704700004000002003
:102F0000E7370008E5370008074A10B513889C0525
:102F1000FDD518B111B1C2E9060110BD0348906199
:102F20000348D06110BD000040000020E5390008D2
:102F3000E939000803480021C1610A220262417098
:102F400070470000600000201CB5FFF7D9FC344832
:102F500000213D22806B4FF49C73E93000F8DF1CA8
:102F600000F8DE1C3521C17101210172042141727A
:102F700007218272C1720121017329493C310A780B
:102F800042734A7882738A78C273CA7802740A7963
:102F90004274497981743221C17404210175204938
:102FA000C91D097841751E49C91D497881751C499B
:102FB000C91D8978C1751A49C91DC978017636219C
:102FC000417604218176164930310A78C2764A78F2
:102FD00002778A784277C9788177FF21C177E9380B
:102FE0001D2100224418491C84F8EC209942F9DB89
:102FF000FF208DF804008DF805008DF806008DF88F
:10300000070008A0FEF7CAFD43200090044801AB6A
:103010004FF40972816B807800F0E4F91CBD000068
:10302000600000200D0A3E2053656E642044484332
:10303000505F4445434C494E450D0A002DE9FC477D
:10304000FFF75EFC534C35210126A06B04F13C05D3
:103050002A4600F8F01F3D2146708670C170072196
:103060000171467129788171294600234978C1711F
:10307000927802722A460C21D27842722A464FF088
:103080000609127982722A464FF00F0A5279C272EB
:1030900001734373F03812221946AF1D08E000BFD8
:1030A00000EB0208521C491C88F8ECC092B289B2AD
:1030B00017F801C0BCF1000FF2D1A06BEF7800EB64
:1030C000020C521C8CF8EC7092B200EB020C2F79BF
:1030D0008CF8EC70521C92B287186D7987F8EC501E
:1030E000521C92B2CD1C511A0844372180F8E85086
:1030F000A06B8518521C85F8EC1091B24518491C3C
:1031000085F8EC9089B24518491C85F8EC6089B2C5
:1031100046180325491C86F8EC5089B24518491C0D
:1031200085F8EC9089B24518491C85F8ECA089B265
:1031300045183A2285F8EC20491C89B245183B22F3
:1031400085F8EC20491C89B2FF224518491C85F8F6
:10315000EC2089B24FF49C7504E04618491C86F8AF
:10316000EC3089B2A942F8D38DF804208DF80520FF
:103170008DF806208DF8072007A0FEF70FFD4320ED
:10318000009001AB4FF40972A078A16B00F02AF90E
:10319000BDE8FC87600000203E2053656E6420443B
:1031A0004843505F444953434F5645520D0A00006F
:1031B0002DE9FC5FFFF7A4FB834F0022F91D97F96F
:1031C000000001F129054FF0FF08032839D0042839
:1031D00037D08DF804808DF805808DF806808DF845
:1031E0000780BC6B3520012604F8F00F4FF003096F
:1031F000667084F802903D20E070734B07202071C8
:103200003C3366711878A07118464FF0080E40786C
:10321000E07118464FF00C0A8078207218464FF083
:103220000F0BC078607218460079A072184640797A
:10323000E0729DF807C0F03C1020BCF1FF0F18D0E1
:1032400037E0B86B8272C2720B7803734B784373AA
:103250008B788373CB78C37328788DF804006878F3
:103260008DF80500A8788DF80600E8788DF807003D
:10327000B7E7322004F8FC0F0420607091F800C01A
:1032800084F802C091F801C084F803C091F802C02C
:1032900084F804C0C97861713621A171E071287881
:1032A000207268786072A878A072E878E072FC3CBE
:1032B0001C2051462518401C85F8EC102118BA46F0
:1032C00081F8EC20404F401C0021423707E000BF4E
:1032D00004EB000C401C8CF8EC5080B2491C7D5C67
:1032E000002DF5D1DAF83850DF7805EB000C401CE2
:1032F0008CF8EC7080B205EB000C1F798CF8EC7048
:10330000401C80B22F185B7987F8EC30401C83B2E8
:10331000C81C591A2944544681F8E800A06B37218B
:10332000C5185B1C85F8EC1099B24518491C89B288
:10333000431885F8ECE0491C89B2451883F8EC6025
:10334000491C85F8EC9089B24518062385F8EC30C5
:10335000491C89B24518491C85F8ECB089B245185A
:103360003A2385F8EC30491C89B245183B2385F88F
:10337000EC30491C89B245181F2385F8EC30491CF4
:1033800089B245182123491C85F8EC3089B24318CD
:10339000491C83F8EC8089B24FF49C7303E0451814
:1033A000491C85F8EC209942F9DB08A0FEF7F6FBF2
:1033B0004320009001AB4FF40972A078A16B00F09C
:1033C00011F8BDE8FC9F0000600000203E2053651E
:1033D0006E6420444843505F524551554553540D47
:1033E0000A0000002DE9F0479946089E15468A46D6
:1033F0000446082803D94FF0FF30BDE8F08760018C
:103400004FF001080830FEF739FB00F00F000228EA
:1034100004D0042802D06FF00400EEE78DB1D9F893
:10342000000088B19EB14FF4427000EB4410074693
:10343000FEF724FB42280DD022280BD06FF00600A7
:10344000DBE76FF00D00D8E76FF00B00D5E76FF00A
:103450000A00D2E740F6084000EB44100422494637
:10346000FEF772FB41F20800310A00EB4410FEF750
:103470004BFB41F20810F1B200EB4410FEF744FBA5
:1034800041F6087000EB4410FEF7F8FA4FF6FF71B2
:1034900001EA8020854200D9054608FA04F6DFF8E3
:1034A00084802046FFF78CF881463846FEF7E6FA1E
:1034B00038B1B8F80200064206D04D4504D90020C4
:1034C0009BE76FF0030098E74D45EAD82A4651463E
:1034D000204600F042F94FF4847000EB4410064699
:1034E0002021FEF711FB4FF4027000EB441430462C
:1034F000FEF7C4FA0028FAD12046FEF7BFFA00F022
:103500001F00C10605D520461021FEF7FDFA28460A
:1035100073E70007F0D520460821FEF7F5FA6FF0B3
:103520000C006AE7280000202DE9F0411D461746EF
:103530000E460446082803D94FF0FF30BDE8F0815D
:10354000012E06D0022E04D0042E02D06FF004000B
:10355000F4E715F0060F6FF00500EFD185B1012EED
:1035600002D0022E0CD103E015F0210FE6D007E0C7
:10357000A90601D52906E1D5E90601D52906DDD53B
:103580002046FEF7D7FD600105F0F0014FF001087D
:1035900008303143FEF7B8FA224E57B93788781C05
:1035A00080B2A0F57F413080F03902D14FF4404025
:1035B00030804FF48160390A00EB4410FEF7A4FA22
:1035C0004FF4A160F9B200EB4410FEF79DFA4FF4FE
:1035D000847000EB441007460121FEF795FA384647
:1035E000FEF74CFA0028FAD105F001007188A040DE
:1035F00008437080B18808FA04F08143B1800A4919
:10360000002021F814000749891D08554FF4427025
:1036100000EB44152846FEF731FA0028FAD060B2D4
:103620008CE7000028000020E4000020F8B50646E2
:1036300011A041F28834006841F2707500900023B7
:10364000224601213046FFF76FFF314618B10BA02B
:10365000FEF7A4FAFEE70EA0FEF7A0FA2A46694696
:103660003046FEF79FFD012804D031460BA0FEF73F
:1036700095FAE4E7F8BD0000C0A8016F25643A534D
:103680006F636B6574204572726F720D0A000000E3
:1036900025643A4F70656E65640D0A0025643A53DF
:1036A0006F636B657420436F6E6E65637420457243
:1036B000726F720D0A0000002DE9F0475FEA020800
:1036C0008946064626D042F6081000EB46152846E5
:1036D000FEF7D4F9074642F6080000EB46142046F0
:1036E000FEF7CCF907EB002087B2380200EB46105A
:1036F000183042464946FEF7DFF907EB080086B26C
:10370000310A2046FEF700FAF1B22846BDE8F0473C
:10371000FEF7FAB9BDE8F0872DE9F041044642F61C
:10372000081000EB44150E462846FEF7A7F9074699
:1037300042F6080000EB44142046FEF79FF907EB21
:103740000020304486B2310A2046FEF7DDF9F1B29E
:103750002846BDE8F041FEF7D7B92DE9F0475FEA0A
:1037600002088946064626D042F2085000EB46156C
:103770002846FEF783F9074642F2084000EB46145C
:103780002046FEF77BF907EB002087B2380200EBFA
:103790004610103042464946FEF7D6F907EB0800BE
:1037A00086B2310A2046FEF7AFF9F1B22846BDE8ED
:1037B000F047FEF7A9B9BDE8F087007870470170BF
:1037C000704710B5040A00F0F0014FF4A850FEF75E
:1037D0009BF92146BDE810404FF4B850FEF794B96C
:1037E000704770477047704710B54FF4A850FEF708
:1037F00045F900F0F0044FF4B850FEF73FF904EB40
:10380000002080B210BD10B54FF4B050FEF736F96D
:1038100004464FF4C050FEF731F904EB002080B2AB
:1038200010BD000010B50446014606224FF410609A
:10383000FEF742F9042204F10E019001FEF73CF973
:10384000042204F10A014FF4A060FEF735F90422C6
:10385000A11D4FF47060FEF72FF907480178A1749D
:103860004178E17481782175C07860750248401E06
:103870000078A07510BD0000390000200020FEF780
:10388000FDB870B504464FF4D850FEF7F7F8207035
:103890004FF4D050FEF7F2F805464FF4C850FEF74B
:1038A000EDF805EB0020608070BD2DE9F0410D467C
:1038B0000646002400F099F84FF0FF38AEB1002220
:1038C000B05C521C204452B244B2082AF8DB102CDF
:1038D00017DC002441F60877315D07EB4410FEF752
:1038E00013F9641C64B2082CF6DBCDB10021084644
:1038F0002A5C401C114440B249B20828F8DB102968
:1039000002DD4046BDE8F081002441F60866295DED
:1039100006EB4410FEF7F8F8641C64B2082CF6DBE2
:103920000020EFE710B5C1B2040A4FF4B050FEF723
:10393000EBF82146BDE810404FF4C050FEF7E4B864
:1039400010B50446014606224FF41060FEF7FCF85D
:10395000042204F10E019001FEF7F6F8042204F1AE
:103960000A014FF4A060FEF7EFF80422A11D4FF406
:103970007060FEF7E9F80748A17C0170E17C4170B6
:10398000217D8170617DC1700249A07D491E087052
:1039900010BD00003900002010B5044630F03A0098
:1039A00002D04FF0FF3010BD0020FEF767F840EA6C
:1039B00004010020FEF7A8F8002010BD10B5044651
:1039C00001784FF4D850FEF79FF86088010A4FF451
:1039D000C850FEF799F8A178BDE810404FF4D050D8
:1039E000FEF792B8002070477047F0B585B04FF4ED
:1039F0001064062269462046FEF75EF8042295010F
:103A000002A92846FEF758F84FF4A066042203A93D
:103A10003046FEF751F84FF47067042204A9384687
:103A2000FEF74AF880210020FEF76EF80020FEF72E
:103A300025F8062269462046FEF786F8042202A9E8
:103A40002846FEF781F8042203A93046FEF77CF8E9
:103A5000042204A93846FEF777F805B0F0BD10B58A
:103A600004464FF43850FEF709F8C0F38011217076
:103A700000F0380001220021202811D038280FD072
:103A8000617010280ED018280CD020280AD0A17000
:103A9000082809D0182807D0202805D0E17010BDCB
:103AA0006270EEE7A270F3E7E27010BD10B54FF45C
:103AB0003850FDF7E3FFC00700D0012010BD10B55E
:103AC00000244FF43850FDF7D9FF10F0300F00D02C
:103AD0000124204610BD10B54FF438542046FDF7A0
:103AE000CDFF20F080012046FEF70EF82046FDF7BE
:103AF000C5FF40F080012046BDE81040FEF704B845
:103B000010B502780021012A00D140214278012A13
:103B100006D0C2788078012A05D001280BD00CE0AD
:103B200041F0380109E0012802D041F0080104E029
:103B300041F0180101E041F010014FF43850FDF759
:103B4000E3FFBDE81040FFF7C6BF70B504464FF471
:103B500038563046FDF792FF41064FF0FF351AD533
:103B600020F03800012C10D040F038013046FDF72D
:103B7000CBFFFFF7B0FF3046FDF780FF012C07D0E9
:103B800000F0380038B1002070BD40F03001EDE7A2
:103B900000F03000F6E7284670BD0000BC3B00088E
:103BA00000000020E4000000BC1B0008A03C00084E
:103BB000E400002034060000CC1B000800A24A04E8
:103BC00000000000000000000102030406070809CD
:103BD00002040608000000000102030401020304BD
:103BE0000607080900C000000000000000000000F7
:103BF0000000000000000000000000000102573536
:103C000035303000E1370008E3370008E7370008B7
:103C1000E5370008BB370008BF3700080000000088
:103C20000000000000000000000000000000000094
:103C300000000000FFFFFFFF000000000A0000007E
:103C4000D1230008252400080124000800000000FA
:103C500000000000000000000000000000005749C4
:103C60005A6E6574000000000000000000000000B3
:103C700000000000007000080000000000000000CC
:103C800000000000000C29AB000000C0A8017BFF71
:103C9000FFFF00C0A80101000000000100000000BB
:0400000508000131BD
:00000001FF
