:020000040800F2
:10700000D007002065710008E3870008C9820008E6
:10701000E1870008E9770008E59A00080000000011
:107020000000000000000000000000008192000845
:10703000957A0008000000004B8A00087D93000844
:107040007F7100087F7100087F7100087F71000860
:107050007F7100087F7100087F7100087F71000850
:107060007F7100087F7100087F7100087F71000840
:107070007F7100087F7100087F7100087F71000830
:107080007F7100087F7100087F7100087F71000820
:107090007F7100087F7100087F7100087F71000810
:1070A0007F7100087F7100087F7100087F71000800
:1070B000D19300087F7100087F7100087F7100087C
:1070C0007F7100087F7100087F7100087F710008E0
:1070D0007F710008BD9700087F710008259800089F
:1070E0007F7100087F7100087F7100087F710008C0
:1070F0007F7100087F7100087F7100087F710008B0
:107100007F7100087F7100087F7100087F7100089F
:107110007F7100087F7100087F7100087F7100088F
:107120007F7100087F7100087F7100087F7100087F
:10713000DFF80CD000F07EF80048004791B300085B
:10714000D0070020EFF30980704780F3098870476B
:10715000EFF30880704780F30888704740BA7047A3
:10716000C0BA70470648804706480047FEE7FEE77A
:10717000FEE7FEE7FEE7FEE7FEE7FEE7FEE7FEE7E7
:1071800081930008317100080649074A0868504396
:1071900043F2390210440860400870470149086012
:1071A00070470000D00200206D4EC641D2B201E00F
:1071B00000F8012B491EFBD270470022F6E710B5FC
:1071C00013460A4604461946FFF7F0FF204610BD55
:1071D0002DE9F05F0546002092469B46884606460C
:1071E000814640241BE0284641464746224600F09F
:1071F00042F853465A46C01A914110D311461846D8
:10720000224600F029F82D1A67EB01084F46224666
:107210000120002100F020F817EB00094E41201E4C
:10722000A4F10104DFDC484631462A464346BDE866
:10723000F09F0000064C074D06E0E06840F00103B7
:1072400094E8070098471034AC42F6D3FFF774FF78
:10725000D8C70008F8C70008202A04DB203A00FA43
:1072600002F1002070479140C2F1200320FA03F39D
:10727000194390407047202A04DB203A21FA02F09B
:107280000021704721FA02F3D040C2F12002914060
:1072900008431946704770B501EB020410F8015B12
:1072A00015F0070301D110F8013B2A1106D110F89F
:1072B000012B03E010F8016B01F8016B5B1EF9D1A3
:1072C0002B0705D40023521E0FD401F8013BFAE727
:1072D00010F8013B02F10202A1EB030303E013F8F3
:1072E000015B01F8015B521EF9D5A142D6D3002003
:1072F00070BD0029816802D041F0010101E021F058
:107300000101816070470029816802D041F48071D9
:1073100001E021F480718160704700000D4910B5D3
:10732000884202D1012144150AE00B49884202D16A
:107330000121041504E0094988420AD10121CC0346
:10734000204601F037FC2046BDE81040002101F046
:1073500031BC10BD0024014000280140003C014028
:10736000C06C80B27047000010B542680E4B0C79BB
:107370001A400B6842EA04221343436083680B4AB5
:107380001340D1E9024222434C7943EA44031A43B1
:107390008260C26A097C22F47002491EC9B242EAC4
:1073A0000151C16210BD0000FFFEF0FFFDF7F1FFCB
:1073B00070B5072409290AD9C568A1F10A0606EBA8
:1073C0004606B440A543B3401D43C56007E00569C8
:1073D00001EB4106B440A543B3401D4305611F23A3
:1073E000072A09D2446B521E02EB820293409C434F
:1073F00091400C43446370BD0D2A09D2046BD21F27
:1074000002EB820293409C4391400C43046370BDA5
:10741000C46A0D3A02EB820293409C4391400C43B4
:10742000C46270BD816841F0080181607047002925
:10743000816802D041F4A00101E021F4A001816043
:107440007047816841F004018160704710B5054CB8
:1074500000212046FFF757FF2046BDE810400021DD
:10746000FFF747BF0024014070B586B04FF480405D
:1074700001F072FB154E3046FFF750FF0121480224
:1074800001F08CFB0124ADF8144000258DF8175055
:1074900005A90F4800F05AFE4FF46020CDE902051F
:1074A0008DF8044000958DF805408DF81040694630
:1074B0003046FFF759FF01213046FFF724FF012135
:1074C0003046FFF716FF06B070BD000000240140F3
:1074D000000C01402DE9FC4100240125504E0428F8
:1074E00021D006DC01280CD002280FD0032810D1AF
:1074F00010E0052821D04B4E062821D00F28F6D1C8
:1075000055E00121FF2001F001FD4EE001F0B4FD46
:10751000044680E00721062000F0CCF803287AD149
:107520000124357377E00821062000F0C3F8042811
:1075300071D10124002030736DE001F0A3FE6AE0F8
:10754000042201A9202000F06FFB9DF807000090A5
:107550009DF806309DF805209DF8041032A002F039
:10756000C9FC304F002001AC1837215C3954401C55
:10757000C0B20428F9D304222146242000F054FB91
:107580009DF8070000909DF806309DF805209DF8B5
:1075900004102EA002F0AEFC00203A18215C401C22
:1075A000C0B211710428F8D3F570012433E05521DD
:1075B000002000F069FB032003F0E2FC002000F053
:1075C00045FB55282AD02AA002F094FC042201A9E8
:1075D000072000F07BFEE0B1042201A9102000F09A
:1075E00075FEB0B1042201A90B2000F06FFE80B13E
:1075F000042201A9142000F069FE50B1022201A961
:107600001B2000F063FE20B1022201A91D2000F022
:107610005DFE0124F5702046BDE8FC811DA0D3E786
:107620003A0300209002002048617264576172653D
:107630005F56657273696F6E3A2025642E25642E3D
:10764000253032642E253032640D0A00536F667483
:10765000576172655F56657273696F6E3A20256473
:107660002E25642E253032642E253032640D0A001A
:107670007361766520696E6461746120746F206542
:107680006570726F6D204641494C45442E2E2E2E5A
:107690000D0A00007361766520696E646174612073
:1076A000746F20656570726F6D204F4B2E2E2E2EDD
:1076B0002E0D0A002DE9F05F4FF00009444F454EB2
:1076C0004D464FF00108052802D006287AD171E016
:1076D000414CA188206800F0B5FDA071A18A206905
:1076E00000F0B0FDA075A2793C49DFF8F4B0DFF8F6
:1076F000F4A01AB9374A1278032A01D050B32CE00B
:1077000087F80B80C8882189464688425AD30620CC
:1077100000F0C2F904218BF8061006228BF8032032
:107720009AF80020A2769AF80120E2769AF80220D0
:1077300022779AF8032062779AF804208146A2778C
:107740009AF80500E0772348017025482030067339
:10775000457337E03078042802D0FD72CD8031E0E7
:1077600087F80B80C888218B88422BD3052000F036
:1077700093F905218BF8061006218BF803109AF86F
:107780000010A1729AF80110E1729AF802102173A8
:107790009AF8031061739AF804108146A1739AF85D
:1077A0000500E073032030700D48203080F802801F
:1077B000C57007E0084600F06FF930708146032875
:1077C00003D03D734846BDE8F09F87F80C80F9E789
:1077D0003A030020BC000020BC010020240300204C
:1077E00090020020D4000020FEE7000070B5114C8C
:1077F0002178012902D0022919D109E040220E493D
:1078000003F06CFFC1B261700CA002F073FB0EE0DC
:107810000E490020084B0A7862700D4D03E02E5C83
:107820001E54401CC0B29042F9D30020087060780A
:1078300070BD0000900200208D030020676F74204F
:107840006C656E73203D2025640D0A0060020020E7
:107850004D030020094810B500218170C1700171ED
:1078600041718171C171017240210548FFF7A5FC8A
:10787000BDE8104040210348FFF79FBC9002002064
:10788000E40200208D03002070B5134C607A0128BB
:107890000CD002280ED0002503280FD00F4801215C
:1078A00002797AB121706172057170BDBDE87040D6
:1078B00003F0E0B8BDE8704001F0F2B9002002F03A
:1078C0008FFF06E0427C22B1022222704574617271
:1078D00070BD657270BD0000900200203A03002068
:1078E000F8B50D46064600244FF4106706221D49E0
:1078F0003846009402F08CFA1A4801784278C3782E
:10790000114382781A43114302791143427911439A
:107910000CD1047008214170DC218170C4700471A5
:10792000447101460622384602F0BAFA0D4F0E485D
:107930003C3F0422BE70C7E90D054FF470656946EF
:10794000284602F0ADFA04226946284602F0A8FA59
:1079500004226946900102F0A3FA04F065F83C7035
:10796000F8BD000088000020785634122DE9F0415F
:10797000474C2078062823D0A0784FF4427101EBC1
:10798000401002F027FA222805D0002344220221C9
:10799000A07804F0E9FB012503F0F4FDC2B23C48F5
:1079A00094F900C0C01D00260127011F4FF00308F5
:1079B000BCF1050F2FD2DFE80CF0060D1C304A0099
:1079C0000520BDE8F081067046708670C67004F030
:1079D0002DF95AE0022A1BD1A16B0A7C02704A7C65
:1079E00042708A7C8270C97CC17004F0CBF902209D
:1079F0002BE0052A0AD102F02FFD08B1606A3CE0B5
:107A000004F012F8E06A8047267004E0062A3AD0B3
:107A100002F056FD05462846D3E7A2690425531C0B
:107A2000F9D0E369B3EB520FF5D902780A704278C6
:107A30004A7082788A70C078C870606B401C60633E
:107A400004F0A0F903F0F0FF04202070E3E7042520
:107A5000052ADBD166700A7803789A420BD14A78FE
:107A600043789A4207D18A7883789A4203D1C978B9
:107A7000C078814202D0A06A0325804703F0D4FF7A
:107A800084F80080C7E703F0CFFF2770C3E700004A
:107A90004C000020704700002DE9F843414C0422BF
:107AA0003F4B21780127404DDFF80081062807D0A1
:107AB000032605280AD0082811D0072835D007E06A
:107AC000032905D122701F7339A00AE0042902D0CE
:107AD0000846BDE8F88326709F703DA027E022701D
:107AE00042A002F007FAA988286800F0BBFBA98A27
:107AF000286900F0B7FB14208DF803008DF80270A0
:107B00000025474607EB05166946B088ADF800002A
:107B1000306800F01BFBB188306800F0A1FB6D1CE1
:107B2000EDB20E2DEED32078D3E7267037A002F009
:107B3000E1F9DFF86C900026A9F1200999F80A0014
:107B4000F04010F0010105EB06108171818800689A
:107B500002D000F087FB01E000F082FB761CF6B259
:107B6000082EEBD348208DF803008DF80270002515
:107B70004FEA080606EB05108188ADF80010006892
:107B8000694600F0E3FA6D1CEDB20E2DF2D3012030
:107B900003F0F6F9FF21084601F0B8F9C3E7000049
:107BA000B0020020BC000020DC010020DC0000202E
:107BB000506C6174666F726D2044697341726D69B7
:107BC0006E6720627920494F2E2E2E0D0A0000008C
:107BD000506C6174666F726D2041726D696E6720C2
:107BE000627920494F2E2E2E0D0A0000506C6174D0
:107BF000666F726D2044697341726D696E672062B1
:107C000079204E45542E2E2E0D0A0000506C6174C2
:107C1000666F726D2041726D696E67206279204EC9
:107C200045542E2E2E0D0A002DE9F04115460E4624
:107C30000746002406E03819C0B200F007F83055B6
:107C4000641CE4B2AC42F6D3BDE8F08110B5044642
:107C500003F008FBA02003F0D7FA03F03BFB20461B
:107C600003F0D2FA03F036FB03F0FCFAA12003F094
:107C7000CBFA03F02FFB03F0A1FA044603F082FADB
:107C800003F010FB204610BD70B50D46044603F00E
:107C9000E9FAA02003F0B8FA03F01CFB204603F039
:107CA000B3FA03F017FB284603F0AEFA03F012FB19
:107CB000BDE8704003F0F6BA2DE9FC4100F0F0FC9D
:107CC000A02003F045FA20B175A002F013F901F0ED
:107CD000D9FA0020FFF7BAFF05460521774EA943E0
:107CE0000FD177A002F006F90024671CF8B2FFF765
:107CF000ADFF3119C870032003F042F9FCB2032C28
:107D0000F3D30A20A84315D175A002F0F3F800F0D0
:107D100043FD00243019641CC178E0B2FFF7B4FFC2
:107D2000032003F02DF9E4B2032CF3D30521002046
:107D3000FFF7AAFF5020744CA8434FF0010703D16E
:107D4000277072A002F0D6F8A020A84348D0277070
:107D50006D490422C91C202000F0B8FA6A490422A7
:107D6000C91D242000F0B2FA042201A92020FFF747
:107D70005BFF9DF8070000909DF806309DF80520F8
:107D80009DF8041065A002F0B5F8042201A9242092
:107D9000FFF74AFF9DF8070000909DF806309DF818
:107DA00005209DF8041066A002F0A4F8022201A9A3
:107DB0002A20FFF739FF544CBDF80400FC3440BAC8
:107DC0002083022201A92820FFF72EFFBDF804001E
:107DD00042BA2281218B63A002F08CF8BDE8FC81BD
:107DE0000220207069A002F085F804223446B11DFB
:107DF0000720FFF719FF314904220E311020FFF749
:107E000013FF2E4904220A310B20FFF70DFF042235
:107E100064491420FFF708FF022201A91B20FFF785
:107E200003FFBDF80400604D40BA0222288001A97A
:107E30001D20FFF7F9FEBDF804005C4E40BA30800B
:107E400063792279E1785AA002F054F8607A0090C0
:107E5000237AE279A1795CA002F04CF8607C009072
:107E6000237CE27BA17B5EA002F044F8607B009063
:107E7000237BE27AA17A60A002F03CF84948C178FD
:107E8000009183784278017861A002F033F8298864
:107E900065A002F02FF8318868A002F02BF857E7B0
:107EA000676F74206E6F7468696E6773206F6E20E1
:107EB000696963206275730D0A000000A500002047
:107EC000204D414320616C726561647920696E20A8
:107ED000454550524F4D2E2E2E2E2E2E0D0A0000AF
:107EE000204D41432072616E646F6D2026207374B3
:107EF0006F726520696E20454550524F4D2E2E2ED3
:107F00002E2E2E0D0A000000C000002045544820EF
:107F10003D20444843502E2E2E0D0A0048617264C5
:107F2000576172655F56657273696F6E3A2025649A
:107F30002E25642E253032642E253032640D0A0041
:107F4000536F6674576172655F56657273696F6EC1
:107F50003A2025642E25642E253032642E253032B9
:107F6000640D0A0041524D494E475F44454C41590A
:107F70003D25642C44495341524D494E475F444589
:107F80004C41593D25640D0A00000000455448202D
:107F90003D205374617469632049502E2E2E0D0AC2
:107FA000000000009C0000209A00002098000020A3
:107FB0006D6163203A20253032582E253032582EFC
:107FC000253032580D0A00004C6F63616C49502017
:107FD0003A2025642E25642E25642E25640D0A0082
:107FE00047617465576179203A2025642E25642EF7
:107FF00025642E25640D0A005375624E6574203A7F
:108000002025642E25642E25642E25640D0A00008B
:108010004473744950203A2025642E25642E25642B
:108020002E25640D0A0000004C6F63616C506F7266
:1080300074203A2025640D0A000000004473745037
:108040006F7274203A2025640D0A000070B5054651
:108050004FF43026304600F067F8042811D1094C5F
:10806000206940F0020020616561206940F0400015
:108070002061304600F058F8216941F6FD72114048
:10808000216170BD0020024008490420CA68D2075F
:1080900001D001207047CA68520701D502207047FD
:1080A000C968C906FBD503207047000000200240C4
:1080B0000248016941F080010161704700200240DF
:1080C0002DE9F841064600204FF4005700900D4678
:1080D000384600F029F8042816D10C4C206940F0ED
:1080E000010020613580B846384600F01DF8BF1EFB
:1080F000042806D1B61C280C00963080404600F0BB
:1081000013F8216939402161BDE8F881002002405F
:1081100003480249416003494160704723016745B4
:1081200000200240AB89EFCD00B50346FFF7ACFF5E
:1081300003E000BFFFF7A8FF5B1E012803D0002B60
:1081400000D1052000BD002BF4D1FAE7F0B5CA78C4
:10815000002502F00F03D20601D58A7813430C786C
:108160004FF00F0E0122ECB1D0F800400F8802FA58
:1081700005F63740B74211D14FEA850C0EFA0CF7DD
:1081800024EA070703FA0CF43C43CF78282F02D0E7
:10819000482F02D002E0466100E006616D1C082D08
:1081A000E4D304600C88FF2C1ED944685FF00006FD
:1081B00006F1080702FA07F50F882F40AF420FD1EA
:1081C0004FEA860C0EFA0CF7BC4303FA0CF73C435B
:1081D000CF78282F00D14561CF78482F00D1056195
:1081E000761C082EE4D34460F0BD0000F0B5144CBA
:1081F000002801DAE36900E06368420D120185B2EC
:10820000C0F301579540C0F30346032F05D0C202C7
:108210000AD50322B240934307E023F070626368FB
:1082200023F07063636002E0AB4343F0706201B11E
:108230002A43002801DAE261F0BD6260F0BD00006F
:10824000000001400246002092680A4200D001204E
:10825000704702460020D2680A4200D001207047D1
:10826000416170470161704770B5094E0D46044683
:10827000304614F8011B01F0DDFB8021304601F08F
:108280005BFB0028F9D06D1E15F0FF05F0D170BD25
:108290000048004010B50B4C052301220821204660
:1082A000FFF786F82046FFF7BDF82046FFF7C9F82C
:1082B00001212046FFF7BBF82046BDE81040FFF73C
:1082C0004FB8000000240140FEE700002DE9F04116
:1082D00015460E460746002412E000BF07EB0408CF
:1082E00008F0FF00FFF7B2FC315D884206D008F0CD
:1082F000FF00FFF7C9FC032002F042FE641CE4B259
:10830000AC42EBD300240EE03819C0B2FFF79EFC5C
:10831000315D884205D007A001F0ECFD0020BDE8EA
:10832000F081641CE4B2AC42EED308A001F0E2FD9F
:108330000120F4E77361766520696E6461746120E1
:108340006661696C65642E2E2E0D0A007361766578
:1083500020696E64617461204F4B2E2E2E0D0A0031
:108360002DE9FC476F4D704F284629794079012946
:1083700004D002292CD0032930D132E000F0F004DF
:10838000FC71502C01D0A02C28D10020FFF75EFCFE
:1083900000F0F001A14219D000F00F052543294655
:1083A0000020FFF771FC032002F0EAFD0020FFF738
:1083B0004DFCA84204D15DA001F09CFD012603E024
:1083C00062A001F097FD0026012006E068A0F3E717
:1083D00000F080FB060001D00220B8713046BDE8F5
:1083E000FC876A4C0422A11DA071A879E071E8798C
:1083F0002072287A60720720FFF768FF0028EED00D
:10840000687AA073A87AE073E87A2074287B607495
:10841000042204F10E011020FFF758FF0028DED0DF
:10842000687BA072A87BE072E87B2073287C607375
:10843000042204F10A010B20FFF748FF0028CED0E8
:10844000DFF84C91697C042289F80010A97C89F836
:108450000110E97C89F80210297D89F8031049464A
:108460001420FFF733FF0028B9D0687D8DF8040091
:10847000A87D8DF80500B5F81500DFF8188140BA21
:108480000222A8F8000001A91B20FFF71FFF002807
:10849000A5D0E87D8DF80400287E8DF80500B5F89C
:1084A00017003D4D40BA0222288001A91D20FFF788
:1084B0000DFF060034D063792279E17837A001F00E
:1084C00019FD607A0090237AE279A17939A001F050
:1084D00011FD607C0090237CE27BA17B3BA001F03E
:1084E00009FD607B0090237BE27AA17A3DA001F038
:1084F00001FD99F80310009199F8023099F80120D4
:1085000099F800103DA001F0F5FCB8F8001041A06A
:1085100001F0F0FC298844A001F0ECFC03205CE7AA
:1085200000205CE78D0300209002002073617665D7
:1085300020696E6461746120746F20656570726F6C
:108540006D204F4B2E2E2E2E2E0D0A007361766558
:1085500020696E6461746120746F20656570726F4C
:108560006D204641494C45442E2E2E2E0D0A00000A
:108570006E6F206E65656420746F20736176652070
:10858000696E646174612E2E0D0A0000A500002042
:108590009C0000209A000020980000206D6163205C
:1085A0003A20253032582E253032582E2530325878
:1085B0000D0A00004C6F63616C4950203A2025641D
:1085C0002E25642E25642E25640D0A0047617465EE
:1085D000576179203A2025642E25642E25642E25A6
:1085E000640D0A005375624E6574203A2025642E8E
:1085F00025642E25642E25640D0A000044737449F9
:1086000050203A2025642E25642E25642E25640DE5
:108610000A0000004C6F63616C506F7274203A2046
:1086200025640D0A00000000447374506F727420BA
:108630003A2025640D0A000010B545F2555000F0AF
:1086400029F8062000F01AF840F6FF7000F01CF838
:1086500000F00CF8BDE81040AFF3008002494CF682
:10866000CC400860704700000030004002494AF6E4
:10867000AA200860704700000030004001494860AF
:1086800070470000003000400149886070470000DA
:108690000030004001490860704700000030004091
:1086A00008B50121082000F079FA14208DF80300A4
:1086B00003208DF80200C020ADF800006946034891
:1086C000FFF744FD02F0EEFD08BD0000000C014084
:1086D0002DE9FF41154C164E0025A179E1B1A57198
:1086E0000121E171042102F017FA124881784779DB
:1086F0000379C2788DE88E004378027871880EA0E5
:1087000001F0F8FB17494869401C48610621B0FB9D
:10871000F1F115A001F0EEFB307D1E2803D31848BF
:108720000570E5713575BDE8FF8100003A03002052
:1087300024030020D40000206D533A25642C533AC2
:1087400025642C4D3A25642C483A25642C443A255E
:10875000642C4D3A25642C593A25642E2E2E0D0A90
:10876000000000009002002052756E54696D652073
:108770003D202564204D696E732E2E2E2E0D0A008D
:10878000960000200446204600F094FA00F04EF9CE
:1087900001F012FBF7E7000070B5FEF765FE0D4E25
:1087A000002400BFFFF776FDFEF7F8FCFEF7ECFCB7
:1087B0003519C0B2E870FEF7F1FCE97806A001F0C7
:1087C00099FB641CE4B2032CECD3BDE87040FEF7C7
:1087D0003DBE0000A5000020253032783A000000A0
:1087E000FEE77047F0B50F21C478027801234FF0FF
:1087F000E026DCB1124C2468457804F4E064C4F54A
:10880000E064240AC4F10407E1408478BD400C40D0
:108810002C4321010B4C1155007800F01F018B40B7
:10882000400906EB8000C0F80031F0BD02F01F00E7
:108830008340500906EB8000C0F88031F0BD000095
:108840000CED00E000E400E0024908430249086042
:10885000704700000000FA050CED00E0024A1140EC
:10886000014302480160704780FFFF1F08ED00E0F0
:1088700038B54FF4E0414FF00060FFF7EFFF4FF4E1
:10888000C060FFF7E1FF25208DF8000000248DF87F
:10889000014001258DF802508DF803506846FFF71E
:1088A000A1FF1C208DF800008DF801408DF80240DA
:1088B0008DF803506846FFF795FF38BD2DE9F84F56
:1088C0000121084600F06AF901214048FFF78EFCBB
:1088D00001213C2000F062F9482003268DF80300B6
:1088E0003B4D8DF80260002405EB04108188ADF843
:1088F000001000686946FFF729FC641CE4B20E2CE6
:10890000F2D3334D0024E03505EB04108188ADF837
:10891000001000686946FFF719FC641CE4B2022CE1
:10892000F2D31820FFF792F9294D1C3DA8701920A9
:10893000FFF78CF9DFF89C904C46A9F800001A204C
:10894000FFF784F92178264F40EA01202249208050
:10895000DFF8908008802149DFF88CA00880A87893
:108960003870102088F800608DF803008DF80260E0
:10897000002500BF0AEB05146946A088ADF8000089
:108980002068FFF7E3FB3878E84010F00100A071A1
:10899000A188206802D0FFF765FC01E0FFF760FCCA
:1089A0006D1CEDB2082DE5D3397810A001F0A2FAC4
:1089B000B9F8001014A001F09DFA1B4801210173C1
:1089C000817288F80060BDE8F88F00000002300076
:1089D000DC000020A20200209C020020A002002057
:1089E0009A020020BC000020DC0100204F555420DA
:1089F000696E6974207374617475733A30782530C8
:108A000032580D0A00000000494E5F41524D494E58
:108A10004720696E6974207374617475733A307895
:108A2000253034580D0A00003A03002010B500210B
:108A30000520FEF73FFE002001F0ACFC0020FFF710
:108A400047FEBDE81040FEF71FBF704770B50546F2
:108A50000C480C460088A0420DD02846FFF714F9B8
:108A6000032002F08DFA2846FFF7F0F8A04204D167
:108A700005A001F03FFA012070BD0CA001F03AFA08
:108A8000002070BDA20200207361766520706F72B5
:108A9000746461746120746F20656570726F6D20FD
:108AA0004F4B2E2E2E2E2E0D0A0000007361766580
:108AB00020706F72746461746120746F20656570DA
:108AC000726F6D204641494C45442E2E2E2E0D0AC4
:108AD0000000000038B51D4A00201D4C51790129C5
:108AE00021D002291FD003291ED1D188128949BA69
:108AF00053BA184A4FF6FF75B9B1012914D103EBE7
:108B0000C30000EB031005EA80001083010A8DF812
:108B100000108DF80100022269462A20FFF7D6FBDB
:108B2000002801D00321E17138BD03EBC30000EB45
:108B3000031005EA80001081010A8DF800108DF8FD
:108B40000100022269462820E8E700008D0300208A
:108B500090020020BC010020034A516821F44041EA
:108B6000014351607047000000100240044A002990
:108B7000D16901D0014300E08143D1617047000019
:108B800000100240044A0029116901D0014300E0AD
:108B9000814311617047000000100240044A00291F
:108BA000916901D0014300E0814391617047000069
:108BB00000100240044A0029D16801D0014300E0BE
:108BC0008143D16070470000001002400C480168EA
:108BD00041F00101016041680A4A114041600168A9
:108BE000094A11400160016821F480210160416857
:108BF00021F4FE0141604FF41F01816070470000C5
:108C0000001002400000FFF8FFFFF6FE30B52049DB
:108C10004A6812F00C031F4A03D0042B01D0082B22
:108C200022D002604A680F231B4C03EA1212A35C95
:108C30000268DA4042604B68072505EA1323E35CCB
:108C400022FA03F383604B6805EAD323E35C22FA3C
:108C500003F2C2604968032303EA9131231F595C80
:108C6000B2FBF1F1016130BD4A684B6802F4701249
:108C70004FF0020413F4803F04EB924202D04B68A1
:108C80009B0301D5054B00E0024B5A43C9E70000A6
:108C90000010024000127A000400002000093D008C
:108CA00002480349C078887001F01CBE8D03002083
:108CB000900200202DE9FC4782466748007808B101
:108CC00002F02CFB65480427022600780125644C3D
:108CD0004FF4385801280BD0022814D120780028EE
:108CE0007ED001287DD002287CD004280BD193E0CF
:108CF00020784FF00009052805D2DFE800F09198B0
:108D00000D388D002570BDE8FC87404601F062F803
:108D1000C007F8D02670F6E7524FF87C0128F2D948
:108D2000DFF8448187F813904E4688F810904F4939
:108D30000020FEF7D5FD4FF47A79484602F020F97D
:108D4000484602F01DF9B9464FF0030A4FEA0807FA
:108D500099F812000A2802D9FE733D74DAE7FD7310
:108D600084F800A0FEF702FE0428F1D1CBE75046BC
:108D700001F0DEFB504603F079FA002849D0277055
:108D8000022201A91B20FEF74FFFBDF804000222BA
:108D900040BAA08001A91D20FEF746FFBDF80400DF
:108DA0002F4D40BA60800F3531A06B792A79E97870
:108DB00001F0A0F8687A00902B7AEA79A97932A0BC
:108DC00001F098F8687C00902B7CEA7BA97B34A0AA
:108DD00001F090F8687B00902B7BEA7AA97A02E098
:108DE0001EE024E02AE034A001F084F8A5F1090097
:108DF000C178009183784278017835A001F07AF843
:108E0000A18839A001F076F861883CA001F072F8E1
:108E100079E784F8009076E7504600F065FE72E747
:108E2000504601F085FB504600F076FF6AE7404669
:108E300000F0D0FFC0077FF468AF63E7504601F051
:108E400077FB504603F012FA002887D027700421E0
:108E5000504601F061FE56E7C1000020C00000202E
:108E600096000020240300203A030020E4020020A2
:108E70006D6163203A20253032582E253032582E2D
:108E8000253032580D0A00004C6F63616C49502048
:108E90003A2025642E25642E25642E25640D0A00B3
:108EA00047617465576179203A2025642E25642E28
:108EB00025642E25640D0A005375624E6574203AB0
:108EC0002025642E25642E25642E25640D0A0000BD
:108ED0004473744950203A2025642E25642E25645D
:108EE0002E25640D0A0000004C6F63616C506F7298
:108EF00074203A2025640D0A000000004473745069
:108F00006F7274203A2025640D0A00002DE9F05F8D
:108F10000E464A4900224A4C01282AD0DFF824B1E3
:108F20004FF0010A022847D0FF2861D1A281904664
:108F3000A27200254FEA010909EB0517B9883868C4
:108F4000FFF780F9B871A840A1896D1C0843EDB204
:108F5000A0810E2DF0D3C1460025D84608EB051799
:108F6000B9883868FFF775F9A8B3504687F806A0A6
:108F700043E0A2810025884608EB0517B9883868C8
:108F8000FFF760F9B871A840A1896D1C0843EDB2E4
:108F9000A0810E2DF0D3FF2E2AD1608AA589A84288
:108FA00026D06582290A1920FFF750FDE9B2BDE8F5
:108FB000F05F1A20FFF74ABDA272002590465F4677
:108FC00007EB0516B1883068FFF743F920B150462A
:108FD00086F806A003E00DE0404686F80680C0B2A1
:108FE000A840A17A6D1C0843EDB2A072082DE7D30A
:108FF000BDE8F09F484687F80690C0B2A840A17A25
:109000006D1C0843EDB2A072082DA7D3FF2E0DD121
:10901000608AA589A84209D065822582290A19207B
:10902000FFF714FDE9B21A20FFF710FDA289A17A1B
:10903000BDE8F05F04A000F05DBF0000DC00002090
:1090400090020020DC0100204F75747075745F532E
:1090500074617475733A203078253032582C496E1B
:109060007075745F5374617475733A20307825306D
:1090700034580D0A000000002DE9F0411C4D1DA0E0
:109080006979A97200F036FF1D4E0024A87AE040ED
:1090900010F0010106EB041081718188006802D094
:1090A000FFF7E0F801E0FFF7DBF8641CE4B2082CFE
:1090B000ECD31448697902788A4203D001701820F1
:1090C000FFF7C4FC5FF0000406EB0417B9883868AA
:1090D000FFF7BFF8B979884204D00120E87000207A
:1090E000BDE8F081641CE4B2082CEDD30120F7E761
:1090F000900200203078253032580D0A0000000020
:10910000DC010020C200002010210148FFF7AAB8AE
:109110000008014010210148FFF7A2B800080140F3
:109120000029018802D041F0400101E021F0400116
:109130000180704730B587B0012141F20400FFF78C
:109140002DFD0020ADF80000ADF80800ADF80C00D2
:109150004FF48271ADF80400ADF80210ADF80600CE
:10916000ADF80E004FF400710720174CADF80A104F
:10917000ADF810006946204600F039F8E020ADF85F
:10918000140003208DF816001820104D8DF81700DC
:1091900005A92846FEF7DAFF1021ADF814108DF866
:1091A000171005A92846FEF7D1FF10212846FFF722
:1091B00059F80121204600F049F801212046FFF727
:1091C000AFFF07B030BD0000003001400008014093
:1091D000012080F310887047002080F310887047CA
:1091E0000246002012890A4200D00120704730B5A3
:1091F00002884C8802F441530A88CD8822438C8827
:109200002C4322430C8922434C8922438C892243DC
:10921000CC8922431A430280828B22F4006282832B
:10922000098A018230BD000010B5074C20898007F3
:10923000FCD5FF20A08180212046FFF7D1FF012827
:10924000F9D0A089C0B210BD00300140002981884A
:1092500002D041F0040101E021F004018180704757
:1092600010B5064C21898907FCD5A08180212046B4
:10927000FFF7B6FF0128F9D0A08910BD00300140EA
:1092800070470000002001F08FFE002001F050F92F
:1092900071B605480168054A01F4E06111430160B7
:1092A000BFF3408FFEE700000CED00E00400FA057C
:1092B0000CB50021264801910091026842F48032E9
:1092C00002604FF4A063026802F400320092019A37
:1092D000521C0192009A12B9019A9A42F3D1026883
:1092E000920333D5012100911A490A6842F0100215
:1092F0000A600A6822F003020A600A6842F0020269
:109300000A604168416041684160416841F48061A0
:109310004160416821F47C114160416841F4E811E9
:109320004160016841F08071016001688901FCD5EC
:10933000416821F003014160416841F00201416050
:109340004168C1F381010229FAD10CBD00910CBD25
:109350000010024000200240024610B500200146E5
:10936000054B05E05C18491CE47889B2204480B2C2
:109370009142F7D310BD00008D030020704700001C
:109380000F4810B5016841F00101016041680D4AC4
:109390001140416001680C4A11400160016821F4EC
:1093A00080210160416821F4FE0141604FF41F01FA
:1093B0008160FFF77DFF05494FF00060086010BD38
:1093C000001002400000FFF8FFFFF6FE08ED00E08D
:1093D0002DE9F0474FF080490121484600F08CF913
:1093E00000287DD04C4A0023A2F11600D17A19B191
:1093F000C188491CC18000E0C38041884FF47A785D
:10940000012541455CD3454F454E3978491CCCB2C6
:109410003C70438096F800C04249BCF1000F04D074
:1094200033700E78761C0E7000E00B700178491CCA
:1094300001700A21B4FBF1F601FB164101B99571E7
:10944000D17919B1017D491C017500E00375D17B0B
:1094500019B1817C491C817400E0837432498E7893
:109460001EB14E78761C4E7000E04B700E7B1EB124
:10947000CE7A761CCE7200E0CB728E7D1EB14E7D10
:10948000761C4E7500E04B753C2C1BD33B707978F5
:10949000491CC9B27970147C1CB1C47C641CC474AE
:1094A00000E0C3743C2903D37B70B978491CB970C0
:1094B000B978182906D3BB70F978491CF97001E016
:1094C000491C4180018A64290ED0491C018281898E
:1094D000A1F59C44203C0DD18381D178012900E085
:1094E00017E004D0957007E015700382EFE79370E2
:1094F000D37001E0491C81814189414501D94381F3
:1095000001E0491C41814846BDE8F047012100F0D7
:109510002EB8BDE8F08700003A030020D4000020F8
:109520001400002015000020B00200203EB50121EB
:109530000846FFF71BFB0920ADF804004FF4E1508B
:10954000ADF800000020ADF80600ADF802004FF0C5
:1095500080446946204600F0E3F801221146204687
:1095600000F0D6F80121204600F004F83EBDC943C2
:10957000018270470029018802D041F0010101E019
:1095800021F00101018070474B4910B5884202D19A
:109590000121C41486E0B0F1804F09D047498842C8
:1095A0000DD101210220FFF7EDFA0021022064E035
:1095B00001210846FFF7E6FA002101205DE040495D
:1095C000884206D101210420FFF7DCFA00210420A3
:1095D00053E03C49884206D101210820FFF7D2FA26
:1095E0000021082049E03849884206D10121102095
:1095F000FFF7C8FA002110203FE03449884206D125
:1096000001212020FFF7BEFA0021202035E030495B
:10961000884202D10121441444E02E49884202D1FB
:109620000121CC043EE02C49884202D101210C05E5
:1096300038E02A49884202D101214C0532E028490C
:10964000884206D101214020FFF79CFA00214020EA
:1096500013E02449884206D101218020FFF792FAC5
:109660000021802009E0204988420AD18415012187
:109670002046FFF787FA00212046BDE81040FFF79B
:1096800081BA1A49884202D101210C040AE0184922
:10969000884202D101214C0404E0164988420AD1D3
:1096A00001218C042046FFF785FA2046BDE81040D2
:1096B0000021FFF77FBA10BD002C014000040040DC
:1096C00000080040000C0040001000400014004062
:1096D00000340140004C0140005001400054014062
:1096E00000180040001C00400020004000400140E5
:1096F000004401400048014002460020138A92893C
:109700000B4202EA010202D0002A00D00120704779
:10971000002A828901D00A4300E08A43828170478F
:1097200030B502881B4B1C4C98420DD0A0420BD088
:10973000B0F1804F08D0194DA84205D0184DA8426D
:1097400002D0184DA84203D122F070054A882A435E
:10975000154DA84206D0154DA84203D022F44075FD
:10976000CA882A4302808A8882850A8802859842AC
:109770000AD0A04208D00E4A904205D00D4A90422D
:1097800002D00D4A904201D1097A018601218182DD
:1097900030BD0000002C01400034014000040040B6
:1097A00000080040000C0040001000400014004081
:1097B00000400140004401400048014010B5164CF3
:1097C0002021204600F0B8F80028F9D0204600F00B
:1097D0002DF90146114800F02DF9204600F026F938
:1097E0005B2805D0204600F021F95D2802D004E076
:1097F000FFF748FD0A4900200870204600F016F9DE
:109800002F2803D155210020FEF73EFA2046BDE85F
:109810001040202100F03AB80038014000480040D4
:109820009600002070B5144D2021284600F084F8E1
:109830000028F9D0284600F0F9F8C1B20C460F48CC
:1098400000F0F8F80E4A00205178042905D1AA2C1E
:1098500003D10C4B0121597410700B4B11785C54DF
:10986000491CC9B21170402900D910702846BDE8C2
:109870007040202100F00AB8004800400038014044
:10988000600200203A0300204D030020C9430180FC
:10989000704710B5038A4FF2FF0213400A884C88C4
:1098A00022438C88C9880C4322431A43028210BD8C
:1098B0000029818902D041F4005101E021F40051D6
:1098C00081817047174910B588420AD101218C0364
:1098D0002046FFF76FF92046BDE810400021FFF752
:1098E00069B91149884202D101214C0410E00F49A5
:1098F000884202D101218C040AE00D49884202D13C
:109900000121CC0404E00B4988420AD101210C0555
:109910002046FFF737F92046BDE810400021FFF749
:1099200031B910BD003801400044004000480040FB
:10993000004C0040005000400246002012880A42BD
:1099400000D00120704710B5C1F3421301F01F048D
:109950000121A140012B07D0022B07D01430002A8F
:10996000026805D00A4304E00C30F8E71030F6E74F
:109970008A43026010BD000030B50446008A85B0FD
:109980000D464CF6FF710840E98801432182A18908
:109990004EF6F3100140A8882A8910436A890A43C9
:1099A0001043A081A08A4FF6FF410840A9890143D6
:1099B000A1826846FFF72AF91B48844201D1039827
:1099C00000E00298A1890904002900EBC00101EB25
:1099D0000010296802DA4FEA410101E04FEA8101F3
:1099E000B0FBF1F06422B0FBF2F14FEA01114FEA53
:1099F00011136FF018056B4300EB8300A3891D045E
:109A00004FF0320306D503EBC000B0FBF2F000F0DC
:109A1000070005E003EB0010B0FBF2F000F00F00D0
:109A20000843208105B030BD003801408088C0F374
:109A300008007047C1F308018180704770B5054682
:109A400088B0012144F20400FFF7A8F84FF4007435
:109A5000ADF8104001208DF8120018201F4E8DF82F
:109A6000130004A93046FEF771FB6000ADF810004A
:109A700004208DF8130004A93046FEF767FB002090
:109A8000ADF80400ADF806000095ADF80800ADF89B
:109A900018400C21ADF81400114CADF80C00ADF8D5
:109AA0000A10ADF81600ADF81A0005A92046FFF718
:109AB000F0FE69462046FFF75FFF01212046FFF7D1
:109AC000F7FE012240F225512046FFF73CFF01211D
:109AD0002046FFF7EDFE08B070BD00000008014011
:109AE00000380140FEE700002DE9F047344D824682
:109AF0002878002861D000262E704FF4A85000F07E
:109B000069F9304C00F0F0004FF4B858207040462E
:109B100000F060F960704FF40277384600F05AF9AF
:109B200000F01F00A0704FF4427000F053F9E07095
:109B30004FF43859484600F04DF92071617840469D
:109B400000F08EF9A07800F01F0107EB4A1000F03A
:109B500087F9207940F00101484600F081F9207929
:109B6000C107A4F10A0004D021780A0601D48906AD
:109B700003D506700020BDE8F087617801291CD16B
:109B8000A1788A0701D408290ED10F490978012943
:109B900002D0022907D007E0504600F0C9FC504629
:109BA00002F064FB00E00670A0784FF0010142076C
:109BB00000D52971C00600D569710120DBE70000DE
:109BC0003A030020A0000020C000002038B5012189
:109BD0000420FEF7E3FF0820ADF8000001208DF817
:109BE00002001020054C8DF8030069462046FEF760
:109BF000ADFA08212046FEF733FB38BD00080140CE
:109C0000194810B501784FF4106001291BD00229C2
:109C100028D10622154900F043F9144904220A31DB
:109C20004FF4A06000F03CF9104904220E3190017D
:109C300000F036F90D490422BDE81040891D4FF4AB
:109C4000706000F02DB90622084900F029F9084992
:109C50000020FDF745FE0849BDE81040054A0846CA
:109C600001F090BE10BD0000C0000020A500002043
:109C7000E40200203DB5000809B5000870B5154C98
:109C8000054608212046FEF7EBFA322001F078F96C
:109C900008212046FEF7E6FAC82001F071F90E49C6
:109CA00000200870F0214FF4A85000F0D9F80B4CB8
:109CB0004FF4B850617800F0D3F8A07800F00F01AD
:109CC0004FF4027000EB451000F0CAF8BDE8704098
:109CD00002F01FBD0008014096000020A0000020F7
:109CE00010B50749074801F065FE0749074801F02C
:109CF00073FEBDE810400649064801F07FBE000033
:109D0000D9910008D1910008099100081591000827
:109D1000619200082992000810B50446FFF7E0FFA1
:109D20002046FFF7ABFF002000F054F80006FAD4FD
:109D3000204600F00FF82046FFF762FF0349062097
:109D4000C87403490120487110BD0000240300209D
:109D50003A03002010B50446C0214FF4B05000F083
:109D60007FF801214FF4C05000F07AF842F6084025
:109D700000EB44101F2100F073F841F2082000EBC3
:109D80004410052100F06CF841F2083000EB44105B
:109D9000B42100F065F807214FF4C85000F060F8D6
:109DA000D021480100F05CF8BDE8104008214FF4D4
:109DB000D85000F055B8000010B5FEF757FC034925
:109DC0000120087202490020087110BD3A030020EA
:109DD0002403002070B50D4C0546A068804720691B
:109DE0008047E169C5F307408847E169C5F307206B
:109DF0008847E169E8B28847A069804705466069FD
:109E00008047E0688047284670BD00002C00002095
:109E10002DE9F041114C06461746A06888460025FA
:109E2000804720698047E169C6F307408847E169B8
:109E3000C6F307208847E169F0B2884705E0A069CA
:109E4000804708F805006D1CADB2BD42F7D36069CC
:109E50008047E068BDE8F041004700002C0000208A
:109E600070B50E4C05460E46A068804720698047B5
:109E700045F00405E169C5F307408847E169C5F38A
:109E800007208847E169E8B28847E169304688479A
:109E900060698047E068BDE8704000472C00002002
:109EA0002DE9F041124C06461746A0688846002569
:109EB00080472069804746F00406E169C6F3074001
:109EC0008847E169C6F307208847E169F0B288470F
:109ED00006E000BFE16918F8050088476D1CADB2C7
:109EE000BD42F7D360698047E068BDE8F0410047B4
:109EF0002C0000200FB4054B10B503A9044A0298AA
:109F000000F018F810BC5DF814FB000035B0000834
:109F10005C02002002E008C8121F08C1002AFAD122
:109F200070477047002001E001C1121F002AFBD1D9
:109F3000704700002DE9FF4F8DB00F460546002603
:109F4000DEE1252874D100246D1CF149A246A1460A
:109F500001222B78203B02FA03F0084202D004438E
:109F60006D1CF6E728782A2810D06FF02F02287889
:109F7000A0F13001092915D80AEB8A0102EB410151
:109F800044F0020400EB010A6D1CF0E757F804AB43
:109F9000BAF1000F03DA44F40054CAF1000A44F0A5
:109FA00002046D1C28782E2817D115F8010F44F0F3
:109FB00004042A280ED06FF02F022878A0F1300177
:109FC00009290AD809EB890102EB410100EB0109DB
:109FD0006D1CF2E757F8049B6D1C28786C280FD095
:109FE00006DC4C2817D068280DD06A2814D104E06C
:109FF000742810D07A280FD10DE044F400140AE040
:10A0000044F4801401E044F440146978814202D1A0
:10A010006D1C04F580146D1C2A786E2A20D00DDC8E
:10A02000632A33D005DC002A6FD0582A12D1A2E06F
:10A0300011E0642A6AD0692A0CD167E0732A2FD014
:10A0400004DC6F2A6FD0702A04D199E0752A6BD096
:10A05000782A6AD01046DDE90F129047761C4EE14F
:10A06000C4F30250022806D003280AD0042801CFE6
:10A070000AD0066043E101CF4FEAE671C0E9006112
:10A080003DE101CF06803AE1067038E117F8040B94
:10A090008DF8000000208DF80100EB46012003E060
:10A0A00057F804BB4FF0FF3061074FF0000102D4B6
:10A0B0000DE008F10101884649450FDA8045F8DBDB
:10A0C0001BF808100029F4D108E008F101018846C6
:10A0D0008142FADB1BF808100029F6D1DDE90F23D5
:10A0E000AAEB08008146214600F03BF9304400EB22
:10A0F000080604E0DDE90F121BF8010B9047B8F1E8
:10A100000108F7D221464846F4E0FDE00A21C4F3F5
:10A1100002534FF0000B0891022B07D001CFC1175B
:10A12000032B09D00AE034E023E024E0FF1D27F0F0
:10A130000707F7E8020105E000B2C117042B01D1BF
:10A1400040B2C117002907DA4FF0000CD0EB0C0029
:10A150006CEB01012D2302E0230504D52B238DF8A0
:10A160002430012303E0E30701D02023F7E79846DA
:10A1700050E00A210EE010204FF0000B08900CE098
:10A1800010214FF0000B44F004044FF0080908912F
:10A1900003E008214FF0000B0891C4F30253022B97
:10A1A00004D001CF0021032B06D006E0FF1D27F0CD
:10A1B0000707F7E8020103E080B2042B00D1C0B228
:10A1C0004FF00008230725D5702A2AD0DDF820C0DB
:10A1D0008CF0100C5CEA0B0C09D150EA010306D09C
:10A1E00030238DF824308DF8252002239846DDF8A1
:10A1F00020C08CF0080C5CEA0B0C0BD150EA010378
:10A2000001D1630706D530238DF824304FF00108C3
:10A21000A9F10109582A09D03EA20B9208AA0A9274
:10A2200011E040238DF824300123DFE73EA2F4E75C
:10A230005B46089AFCF7CCFF0B9B9B5C0A9AA2F149
:10A2400001020A92137050EA0102F1D10A98ADEBB3
:10A25000000000F1200B600702D524F4803401E0F7
:10A260004FF00109D94502DDA9EB0B0000E0002009
:10A2700000EB0B0141440890AAEB010AE00306D46D
:10A28000DDE90F232146504600F06BF8064400201C
:10A2900008E009A911F80900DDE90F129047761CC2
:10A2A00009F1010081464045F3DBE0030CD5DDE90F
:10A2B0000F232146504600F054F8064404E0DDE93F
:10A2C0000F1230209047761C0899481E08900029EC
:10A2D000F5DC08E00A980A990078491C0A91DDE942
:10A2E0000F129047761CBBF10001ABF1010BF1DCC2
:10A2F00021465046DDE90F2300F020F806446D1C8E
:10A30000287800287FF41DAE11B03046BDE8F08FEC
:10A31000092801003031323334353637383961623B
:10A3200063646566000000003031323334353637FF
:10A330003839414243444546000000002DE9F041D0
:10A34000044600251E461746880405D406E0394613
:10A350002020B04705F10105641EF8D52846BDE868
:10A36000F0812DE9F041044600251E469046C803C1
:10A3700001D5302700E02027880405D506E04146B6
:10A380003846B04705F10105641EF8D52846BDE8FA
:10A39000F08100002DE9F04180462B482B4D00262E
:10A3A000007805F1200403281DD129480078D0B198
:10A3B00001210846FEF7AAFDA989288A81420FD00B
:10A3C0000120A0752348E6750278227642786276ED
:10A3D0008278A276C278E276027922774079607735
:10A3E000688A4140E981607D062702280AD3E07D22
:10A3F00040B9EF70A67566750320A87139464046CE
:10A4000000F08AFBE07A02280AD3607B40B9EF7043
:10A410002673E6720420A8713946404600F07CFBA2
:10A42000607802280DD3E07800280AD1EF70A6707A
:10A4300066700520A87139464046BDE8F04100F03D
:10A440006BBBBDE8F0810000BC0000209002002042
:10A450003A030020D4000020F8B54FF4D856304617
:10A46000FFF7B8FC054603213046FFF7F9FC0E4B19
:10A4700041F28830DC1F009011220CA1A07801F07D
:10A48000D1FD074629463046FFF7EAFC0D3708D0D4
:10A4900001F062FBE069E169091A0229FBD300209F
:10A4A000F8BD0120F8BD000053000020434845439B
:10A4B0004B5F49505F434F4E464C494354000000A8
:10A4C00070B51A4C0125204694F90110002690F928
:10A4D0000000022917DAD4E90721914223D201288A
:10A4E00004D0022805D0042805D102E001F09EFB2B
:10A4F00001E001F047FCE661E0690A302062607823
:10A50000401C60700FE0012804D0022805D0042808
:10A5100007D102E02670002503E001F087FB01204F
:10A52000207001F081FA284670BD00004C00002028
:10A5300070B50446082802D94FF0FF3070BD4FF4C3
:10A54000847000EB441005461021FFF789FC284673
:10A55000FFF740FC0028FAD14FF4027000EB4410E2
:10A560001F21FFF77DFC0C480121A140C2888A43CE
:10A570000A49C280002021F8140007490831085513
:10A580004FF4427000EB44142046FFF723FC0028F0
:10A59000FAD1012070BD000014000020D402002078
:10A5A0002DE9F04115460E460446082803D94FF020
:10A5B000FF30BDE8F08160014FF001080830FFF77F
:10A5C00009FC00F00F00012802D06FF00400F0E752
:10A5D0004FF4427000EB44100746FFF7FBFB1328D3
:10A5E00002D06FF00200E4E730787178B27801EBC6
:10A5F000002102EB012100EB0120411C2DD060B3B2
:10A6000075B340F6084000EB441004223146FFF7D2
:10A6100047FC41F20800290A00EB4410FFF720FC38
:10A6200041F20810E9B200EB4410FFF719FC4FF4B7
:10A63000847000EB441005460421FFF711FC284606
:10A64000FFF7C8FB0028FAD1174D08FA04F0464678
:10A65000A98808421AD00020ABE76FF00B00A8E7EA
:10A660006FF00A00A5E72E702046FFF7B3FB000746
:10A6700004D520460821FFF7F3FB05E0687805289C
:10A680000AD1002028706870404692E74FF40270AB
:10A690006FF00C0800EB44143846FFF79BFB1728BB
:10A6A000E1D1012085E700001400002010B50C4620
:10A6B00006281ED2DFE800F003070B101418084626
:10A6C00001F05CFF13E0084601F0CAFE0FE00878D5
:10A6D000BDE8104001F07EBF01F0EEFE207006E004
:10A6E000084601F089FF02E0084601F0E8FE00207C
:10A6F00010BD4FF0FF3010BD2DE9F0410C46002198
:10A7000002464F1E08464FF498554FF4A056102AA3
:10A7100061D2DFE802F0080B17131A1E222C364311
:10A72000464A574E535A01F07EFF4BE014B1204683
:10A7300004F10801BDE8F04101F0D5BE208801F028
:10A740005EFE3FE001F06EFE05E0208801F008FFAC
:10A7500038E001F076FE208034E02088010A2846A7
:10A76000FFF77EFB21783046FFF77AFB2AE0304680
:10A77000FFF730FB06462846FFF72CFB06EB0020D0
:10A78000E9E7164882782270C27862700279A27076
:10A790004279E27080792071617113E001F0B9FFB4
:10A7A00010E0204601F0CAFF0CE0204601F075FFE2
:10A7B00008E02078BDE8F04101F0E5BF01F09DFF21
:10A7C00005E020700020BDE8F08101F08DFFC0B2EF
:10A7D00041B2491CF5D13846F5E700002C000020B5
:10A7E00070B5124C0546207A03281DD006DC0028DF
:10A7F00018D0012812D0022809D105E0AB280FD0CB
:10A80000EE2804D10AA000E010A0FFF773FBE17866
:10A81000284600F081F90020607270BD11A0F4E7B5
:10A8200015A0F2E71AA0F0E71DA0EEE790020020C5
:10A830004241434B5F4552524F525F4E4F46524149
:10A840004D45484541440D0A000000004241434B3C
:10A850005F4552524F525F5041434B4147454C4533
:10A860004E0D0A004241434B5F4552524F525F45E5
:10A8700043430D0A000000004241434B5F455252E2
:10A880004F525F48415244574152454F500D0A00C4
:10A890004241434B5F4E4F524D414C0D0A00000068
:10A8A0004241434B5F4552524F525F444154414CE9
:10A8B000454E0D0A0000000030B500231A46084C32
:10A8C000891E05E0A518521CED7892B22B449BB26C
:10A8D0008A42F7DB834201D1002030BD012030BD28
:10A8E0008D0300202DE9F05F3E4C03213E4D0026F4
:10A8F00061722979DFF8F4A021714FF001094FF05E
:10A9000005084FF0AB0B3746072858D2DFE800F0B8
:10A91000570418293B575A0035A0FFF7EBFA69791D
:10A9200061712079FCF7D6FD060002D084F803900F
:10A9300045E084F8038084F806B084F808B03EE06F
:10A9400031A0FFF7D7FAFDF70BFD060002D0022079
:10A95000E07034E084F8038084F808B084F806B02E
:10A960002DE02EA0FFF7C6FAFDF7D2FB304C2046B3
:10A97000FDF76CFB2F492046FDF7A2FBFDF798FB86
:10A98000FEF780FC1BE02CA0FFF7B4FA30488AF8F1
:10A9900007700775A87803280CD92E4829794171CA
:10A9A00069790171A979C170E9798170297A417059
:10A9B000697A0170A770E770A77101266772304647
:10A9C000BDE8F09F24A0FFF795FA0649A0892082F0
:10A9D00020318AF80D7081F8179081F8039081F882
:10A9E0000D90E7E7900200208D0300203A0300203D
:10A9F000476F74206120434F4D4D414E442E2E2E03
:10AA00002E2E0D0A00000000476F74206120646143
:10AA100074612E2E2E2E2E0D0A000000476F74201A
:10AA200061207570646174652E2E2E2E2E0D0A0025
:10AA300000FC010821436587476F742061206B6526
:10AA40006570616C6976652E2E2E2E2E0D0A000023
:10AA500024030020D4000020476F74206120414C63
:10AA600041524D434F4E4649524D2E2E2E2E2E0D05
:10AA70000A0000002DE9F04700252F462846FCF784
:10AA8000B5FE234C03264FF005084FF002090628B7
:10AA90000DD3204A1178AA2907D084F80380EE202C
:10AAA0002072A0716672BDE8F087C01B0DE084F8CB
:10AAB000038084F8089084F8069066720220F2E71A
:10AAC0007919515C51556D1CADB2A842F8D8B2F855
:10AAD000011049BA032902D3C31E8B4206D084F861
:10AAE000038066722672A6710320DCE7104430F8FA
:10AAF000020C40BAFFF7E0FE30B184F80380012178
:10AB0000A17121726672CEE784F809900020CAE72D
:10AB1000900200208D0300202DE9F35F0E460025F2
:10AB20002021B348FCF749FB0027DFF8C892B04C5E
:10AB30004FF0030A4FF0040B4FF0AA08072E7DD206
:10AB4000DFE806F07C0489A9BBDDEB00AAA0FFF7D3
:10AB5000D1F999F80400012816D184F800806770B3
:10AB60000720A070E67001202071B9F80C100A0AC5
:10AB70006271A17199F80A00E0710520FEF7ECFB03
:10AB8000010A217260720A2599F8040002280CD18A
:10AB900084F80080677084F802B0E6702071FEF7D8
:10ABA000DBFB010A6171A071072599F804000328F5
:10ABB00001D0042816D184F80080677084F802B0B0
:10ABC0005946E670032802D0042803D003E084F835
:10ABD00004A000E021710220FEF7BEFB010A6171B2
:10ABE000A071072599F8040006281FD184F8008079
:10ABF00067700C21A170E67020717E4818300178D2
:10AC000061714178A1718178E171C1782172017916
:10AC100061724179A1728179E172C07920730A2051
:10AC2000FEF79AFB010A6173A0730F2599F80400DF
:10AC30000F2803D184F80080677000E0D0E007217E
:10AC4000A170E67020710520FEF786FB010A617194
:10AC5000A0710725C4E06EA0FFF74CF984F80080CE
:10AC600067700520A070E67099F80610217103291D
:10AC700004D0012904D0022902D004E0677102E067
:10AC800099F8070060715046FEF766FB010AA17152
:10AC9000E0710825A4E063A0FFF72CF984F8008098
:10ACA000677084F802A084F803A00120FEF754FB2B
:10ACB000010A21716071062592E06048C079002880
:10ACC00075D05FA0FFF716F984F80080677009203F
:10ACD000A0706148E67001782171417861718178D6
:10ACE000A171C178E1710179217240796072072008
:10ACF000FEF732FB010AA172E0720C2570E057A04A
:10AD0000FFF7F8F884F80080677084F802B0E67006
:10AD100099F806002071022096E756A0FFF7EAF89E
:10AD200084F8008067700C20A070E67099F8061017
:10AD30004E462171032906D0042916D0052914D0C6
:10AD4000FF2912D041E0F089010A6171A071294800
:10AD50002030417FE171017F2172C17E6172817E6D
:10AD6000A172417EE172007E2EE067714848A771B2
:10AD7000042904D005290ED0FF2919D025E0C17F70
:10AD8000E171817F2172417F6172017FA172C17E79
:10AD9000E172807E18E0C17BE171817B2172417B91
:10ADA0006172017BA172C17AE172807A0CE01DE0D0
:10ADB00038484179E17101792172C17861728178F5
:10ADC000A1724178E172007820730A20FEF7C4FA7C
:10ADD000010A6173A0730F25F1892FA0FFF78AF88C
:10ADE00029460098BDE8FC5F01F0D8B8BDE8FC9F9B
:10ADF0008D0300209002002053656E642061204383
:10AE00004F4D4D414E442E2E2E2E2E0D0A00000089
:10AE100053656E64206120646174612E2E2E2E2E87
:10AE20000D0A000053656E64206120555047524161
:10AE300044452E2E2E2E2E0D0A0000003A0300202F
:10AE400053656E642061206B656570616C69766521
:10AE50002E2E2E2E2E0D0A00A500002053656E64A6
:10AE6000206120646174614572726F2E2E2E2E2E29
:10AE70000D0A000053656E64206120414C41524D23
:10AE8000325345525645522E2E2E2E2E0D0A0000BC
:10AE9000BC010020D40000204261636B5F537461E9
:10AEA0007475733A3078253034582E2E2E2E2E2E6F
:10AEB0002E2E2E2E2E2E0D0A0000000010B516216B
:10AEC0000A48FCF77AF90A4800244021046084808B
:10AED0000648C0F8164044830648FCF76EF9064859
:10AEE0000470064804700648047010BD2403002056
:10AEF000D40000204D0300209600002061020020B5
:10AF00006602002010B5042209494FF47060FEF774
:10AF1000C7FF0749042208314FF4A060FEF7C0FFC5
:10AF200003490422091DBDE810409001FEF7B8BF97
:10AF30005300002010B580210020FEF791FF002073
:10AF4000FEF748FFBDE81040062202494FF41060AA
:10AF5000FEF7A6BF8800002010B580210020FEF774
:10AF60007FFF0020FEF736FFFFF7CCFFBDE8104063
:10AF7000062202494FF41060FEF792BF88000020BD
:10AF800000B502464FF47A7302E0184600F003F869
:10AF9000521EFAD200BD04E00021491CC9B20A29A0
:10AFA000FBD3401EF8D2704770B50446082802D97A
:10AFB0004FF0FF3070BD600101250830FEF70AFF39
:10AFC00000F00F00012801D0A81F70BD4FF484705D
:10AFD00000EB441006460821FEF742FF3046FEF71C
:10AFE000F9FE0028FAD11248A540C188A943C180C2
:10AFF000808805420CD0002070BD3046FEF7EAFE86
:10B0000000070DD52046FFF793FA6FF00C0070BDD6
:10B010004FF4027000EB44164FF4427000EB4415FD
:10B020002846FEF7D7FE0028E7D1012070BD0000BA
:10B030001400002070B5074D0446C1B22846FEF743
:10B04000F9FC40212846FEF777FC0028F9D020467D
:10B0500070BD00000038014004490A7802704A7847
:10B0600042708A788270C978C17070475F00002092
:10B0700004490A7802704A7842708A788270C978E6
:10B08000C17070475700002004490A7802704A785E
:10B0900042708A788270C978C1707047530000206E
:10B0A00004490A7802704A7842708A788270C978B6
:10B0B000C17070475B0000202DE9F04142F2086149
:10B0C00001EB401542F20871002601EB40142846BE
:10B0D000FEF780FE07462046FEF77CFE00EB0720C9
:10B0E00007043F0C09D02846FEF774FE06462046AA
:10B0F000FEF770FE00EB062086B2BE42E7D1304676
:10B10000BDE8F0812DE9F04142F2080101EB401564
:10B1100042F20811002601EB40142846FEF75AFEC1
:10B1200007462046FEF756FE00EB072007043F0CBB
:10B1300009D02846FEF74EFE06462046FEF74AFE98
:10B1400000EB062086B2BE42E7D13046BDE8F08172
:10B1500010B50B490446086800060ED5086840067D
:10B160000BD500F07FF8204600F04EF800F0B2F862
:10B17000044600F097F8204610BD012010BD0000E5
:10B18000080C014010B50C4C80212046FDF76AF8F0
:10B190001E20FFF700FF40212046FDF763F81E2028
:10B1A000FFF7F9FE40212046FDF75AF8BDE81040B0
:10B1B0001E20FFF7F0BE0000000C01402DE9F04119
:10B1C0000024104E0F4F2546083E6006040E402115
:10B1D0003046FDF747F81E20FFF7DDFE3868000611
:10B1E00001D5641CE4B240213046FDF739F81E2039
:10B1F000FFF7D1FE6D1CEDB2082DE6D32046BDE869
:10B20000F0810000080C014070B5154E0546002481
:10B2100028064FF08001304602D5FDF723F801E003
:10B22000FDF71EF81E20FFF7B6FE40213046FDF761
:10B2300019F81E20FFF7AFFE40213046FDF710F849
:10B24000072C03D180213046FDF70CF86806050E67
:10B250001E20FFF7A0FE641CE4B2082CD8D370BDFA
:10B26000000C014010B50E4C80212046FCF7FAFF7F
:10B2700040212046FCF7F6FF1E20FFF78CFE8021C0
:10B280002046FCF7EDFF1E20FFF785FE40212046FB
:10B29000FCF7E6FFBDE810401E20FFF77CBE000073
:10B2A000000C014010B50A4C80212046FCF7D8FF65
:10B2B00040212046FCF7D6FF1E20FFF76CFE8021C0
:10B2C0002046FCF7CFFFBDE810401E20FFF763BE0D
:10B2D000000C014070B5104D80212846FCF7C2FFDC
:10B2E0001E20FFF758FE40212846FCF7BBFF1E201A
:10B2F000FFF751FE084808300068000601D5012418
:10B3000000E0002440212846FCF7AAFF1E20FFF79A
:10B3100042FE204670BD0000000C014070B5134C89
:10B320006078012820D1C50611A0FEF7E3FD16487C
:10B33000FEF7C8FAE800FEF727F9FDF747FC72B6FA
:10B3400000212846FDF78AFA286810490840B0F124
:10B35000005F09D16868E06020612868FBF7FBFEA8
:10B360002069BDE87040004770BD0000C0000020AB
:10B3700045786563757465204941502050726F6748
:10B3800072616D0D0A000000003801400000FE2FC0
:10B3900010B50E4C207800F083F90DA0FEF7AAFD41
:10B3A0001248016812A0FEF7A5FD1048001D0168B3
:10B3B00015A0FEF79FFD0D480830016818A0FEF7A4
:10B3C00099FD2078FDF7DEF9002010BDCE020020A7
:10B3D000557365722050726F6772616D207374616E
:10B3E000727465642E2E2E2E2E0D0A00E8F7FF1FB4
:10B3F00020307831666666663765382069643A3091
:10B400007825580A000000002030783166666666AC
:10B410003765632069643A307825580A00000000D7
:10B4200020307831666666663766302069643A3067
:10B430007825580A000000001CB5062269464FF422
:10B440001060FEF7E5FC2F4A0120916B08704870F0
:10B45000062088700020C870536B1B0E0B71536B55
:10B460001B0C4B71938E1B0A8B7192F83430CB718D
:10B47000916B802308818B72C872916B02F13C033F
:10B48000087348738873C873087448748874C874E0
:10B49000087548758875C875087648768876C876C0
:10B4A0001C780C775C784C779C788C77DC78CC7740
:10B4B0001C7981F820405B7981F821300623CC1873
:10B4C0005B1CDBB22077102BF9D3936B00215C1847
:10B4D000491CC9B284F82C004029F8D3936B002191
:10B4E0005C18491CC9B284F86C008029F8D3906BB1
:10B4F0006321822200F8EC1F427053228270C170D7
:10B500001CBD00004C00002010B50B4CA01DFFF727
:10B51000BBFD04F10E00FFF7ABFD04F10A00FFF7DD
:10B52000BFFD04F11200FFF797FD0220A075BDE8F2
:10B53000104000F013B80000A500002001A0FEF7A5
:10B54000D9FCFEE7434F4E464C4943542049502016
:10B5500066726F6D20444843500D0A0000B589B0F3
:10B560000020009006490190FFF7A0F802A90120F1
:10B57000FFF79CF869460820FFF7BEF809B000BD48
:10B58000A50000207FB5454C0025A078FFF794FD6D
:10B59000020028D001A8009002ABA078A16B00F0B7
:10B5A0000FF982B2BDF8040043283AD1A06B04F130
:10B5B0003C01037F0E78B34215D1437F4E78B342EE
:10B5C00011D1867F8B789E420DD1C37FCE78B34256
:10B5D00009D190F820300E79B34204D190F821308F
:10B5E00049798B4202D0002004B070BDF030811840
:10B5F000F03914E00278332A34D007DCAAB1012AEA
:10B6000018D0032A1AD0062A06D11CE0352A0ED0FB
:10B61000362A37D0FF2A06D04278801C1044884250
:10B62000E8D368B2E0E70846F9E7401CF7E7857819
:10B63000C01CF4E7194A83780F3226E0174A437892
:10B6400086780B3203E0154A4378867813321670F9
:10B65000C6785670067996704679801D1844D67063
:10B66000001FDCE78278A261C37803EB0222A261AB
:10B67000037903EB0223A3614279801D02EB0322CD
:10B68000A261CCE7054A837830321370C3785370D7
:10B69000037993704379801DD370C0E74C0000207C
:10B6A00010B50446FDF76CFE4FF4E130FEF7C6F925
:10B6B000FEF78CFAFDF73EFDFDF738FFFCF7BCFF07
:10B6C000FDF7D6F862B6FFF7F9FBFCF7F5FAFDF7E0
:10B6D000F5F82046BDE81040FEF71EBB2DE9F74FF8
:10B6E00014460546082803D94FF0FF30BDE8FE8F09
:10B6F000680101260830FEF76DFB00F00F000128FD
:10B7000001D0B01FF2E724B341F6086000EB45100A
:10B71000FEF760FB4FF6FF7101EA8020A04200D2E5
:10B7200004464FF4427000EB451841F60870DFF80C
:10B730008CA000EB451B06FA05F92846FFF7BCFC78
:10B7400006464046FEF746FB172816D01C2803D0B5
:10B750000DE06FF00D00C9E7CEB92846FFF7D2FC27
:10B7600007465846FEF736FBB7EB802F05D1284633
:10B77000FEF7DEFE6FF00600B8E7BAF8041019EA2B
:10B78000010F02D01EB90020B0E7002ED5D0A6428E
:10B7900000D2344622462846019900F0ABFD4FF412
:10B7A000847000EB451005464021FEF759FB284602
:10B7B000FEF710FB0028FAD1204697E7140000207E
:10B7C0002DE9FF4F002583B0984617460446082808
:10B7D00003D9681E07B0BDE8F08F60014FF0010A81
:10B7E0000830FEF7F7FA834600F00F00022804D075
:10B7F000042802D06FF00400ECE72FB1DFF87C9151
:10B8000039F8140018B11EE06FF00D00E2E74FF4B4
:10B81000427000EB44160AFA04FA2046FFF74CFC8B
:10B8200005463046FEF7D6FA30B1554989881AEAFE
:10B83000010F06D01DB106E06FF00300CAE700203B
:10B84000C8E7002DE9D0DFF838A100210AF1080A85
:10B850004FF484700AF804100BF007014FF0800BCE
:10B8600000EB4416022920D004295AD0294620464C
:10B8700000F070FD29F8145030464021FEF7F0FA30
:10B880003046FEF7A7FA0028FAD139F81410491B00
:10B890000904090C29F8141005D01AF8041041F015
:10B8A00001010AF80410284694E739F814004D46BF
:10B8B00080BB08226946204600F01CFD304640212E
:10B8C000FEF7CEFA3046FEF785FA0028FAD19DF849
:10B8D000001088F800109DF8011088F801109DF8FC
:10B8E000021088F802109DF8031088F803101099D0
:10B8F0009DF8040008809DF8051001EB00201099C8
:10B9000008809DF806009DF8071001EB002025F83F
:10B9100014002BE02CE02A462046049900F0EAFCB3
:10B92000AAE739F814004D4610BB022269462046AA
:10B9300000F0E0FC30464021FEF792FA3046FEF778
:10B9400049FA0028FAD19DF800009DF8011001EB9A
:10B95000002080B240F2EA5125F81400884205D94F
:10B960002046FEF7E5FD6FF47A7033E70AF804B07D
:10B9700035F81450BD42CED93D46CCE7D402002064
:10B980001400002010B5084B064C5C62074C9C620A
:10B99000074CDC6200B1586201B19962002A00D004
:10B9A000DA6210BD05AF00084C00002059AF000856
:10B9B00035AF0008054A18B111B1C2E9020170475C
:10B9C000034890600348D060704700002C000020BE
:10B9D0001DC400081FC40008054A18B111B1C2E90E
:10B9E000040170470348106103485061704700002C
:10B9F0002C00002023C4000821C40008074A10B509
:10BA000013889C05FDD518B111B1C2E9060110BD1E
:10BA1000034890610348D06110BD00002C00002055
:10BA200021C6000825C6000803480021C1610A227A
:10BA300002624170704700004C0000202DE9F05F69
:10BA400015468B460646082803D94FF0FF30BDE85F
:10BA5000F09F700101240830FEF7BCF900F00F00E0
:10BA6000012801D0A01FF2E775B14FF4427000EB3E
:10BA700046100746FEF7AEF96FF0060A172806D003
:10BA80001C2804D05046E2E76FF00D00DFE7DFF836
:10BA9000C480B440B8F8060004421CD04FF40270D1
:10BAA00000EB46108146FEF795F900F01F00C10635
:10BAB00009D548461021FEF7D3F9B8F80610A1437E
:10BAC000A8F8061007E0000705D53046FEF730FD60
:10BAD0006FF00C00BBE741F6087000EB4610FEF774
:10BAE00079F94FF6FF7101EA8020854200D90546B9
:10BAF0003046FFF707FB81463846FEF76BF91728FB
:10BB000005D01C2803D03046FEF712FDBAE7B8F87E
:10BB10000400044203D04D4501D9002097E74D456C
:10BB2000E6D82A465946304600F035FC4FF484707A
:10BB300000EB461006462021FEF792F93046FEF74C
:10BB400049F90028FAD1B8F8061028460C43A8F89D
:10BB500006407CE7140000201CB5FFF76DFC32485E
:10BB600000213D22806B4FF49C73E93000F8DF1C0C
:10BB700000F8DE1C3521C1710121017204214172DE
:10BB800007218272C1720121017327493C310A7871
:10BB900042734A7882738A78C273CA7802740A79C7
:10BBA0004274497981743221C174042101751E499E
:10BBB000C91D097841751C49C91D497881751A4903
:10BBC000C91D8978C1751849C91DC9780176362102
:10BBD000417604218176144930310A78C2764A7858
:10BBE00002778A784277C9788177FF21C177E9386F
:10BBF0001D2100224418491C84F8EC209942F9DBED
:10BC0000FF208DF804008DF805008DF806008DF8F2
:10BC1000070043200090044801AB4FF40972816B88
:10BC2000807800F0FFF91CBD4C0000202DE9FC4796
:10BC3000FFF702FC524C35210126A06B04F13C05B4
:10BC40002A4600F8F01F3D2146708670C17007211A
:10BC50000171467129788171294600234978C171A3
:10BC6000927802722A460C21D27842722A464FF00C
:10BC70000609127982722A464FF00F0A5279C2726F
:10BC800001734373F03812221946AF1D08E000BF5C
:10BC900000EB0208521C491C88F8ECC092B289B231
:10BCA00017F801C0BCF1000FF2D1A06BEF7800EBE8
:10BCB000020C521C8CF8EC7092B200EB020C2F7943
:10BCC0008CF8EC70521C92B287186D7987F8EC50A2
:10BCD000521C92B2CD1C511A0844372180F8E8500A
:10BCE000A06B8518521C85F8EC1091B24518491CC0
:10BCF00085F8EC9089B24518491C85F8EC6089B24A
:10BD000046180325491C86F8EC5089B24518491C91
:10BD100085F8EC9089B24518491C85F8ECA089B2E9
:10BD200045183A2285F8EC20491C89B245183B2277
:10BD300085F8EC20491C89B2FF224518491C85F87A
:10BD4000EC2089B24FF49C7504E04618491C86F833
:10BD5000EC3089B2A942F8D38DF804208DF8052083
:10BD60008DF806208DF807204320009001AB4FF49A
:10BD70000972A078A16B00F055F9BDE8FC870000BE
:10BD80004C0000202DE9FC5FFFF756FB824F00229C
:10BD9000F91D97F9000001F129054FF0FF0803286C
:10BDA00039D0042837D08DF804808DF805808DF8BF
:10BDB00006808DF80780BC6B3520012604F8F00F53
:10BDC0004FF00309667084F802903D20E070724BDA
:10BDD000072020713C3366711878A07118464FF027
:10BDE000080E4078E07118464FF00C0A80782072F7
:10BDF00018464FF00F0BC078607218460079A07299
:10BE000018464079E0729DF807C0F03C1020BCF164
:10BE1000FF0F18D037E0B86B8272C2720B780373D1
:10BE20004B7843738B788373CB78C37328788DF802
:10BE3000040068788DF80500A8788DF80600E87889
:10BE40008DF80700B7E7322004F8FC0F042060707B
:10BE500091F800C084F802C091F801C084F803C0D2
:10BE600091F802C084F804C0C97861713621A171CB
:10BE7000E0712878207268786072A878A072E878FB
:10BE8000E072FC3C1C2051462518401C85F8EC1043
:10BE90002118BA4681F8EC203F4F401C0021423760
:10BEA00007E000BF04EB000C401C8CF8EC5080B2A3
:10BEB000491C7D5C002DF5D1DAF83850DF7805EBB0
:10BEC000000C401C8CF8EC7080B205EB000C1F7964
:10BED0008CF8EC70401C80B22F185B7987F8EC303E
:10BEE000401C83B2C81C591A2944544681F8E80002
:10BEF000A06B3721C5185B1C85F8EC1099B245186A
:10BF0000491C89B2431885F8ECE0491C89B24518F0
:10BF100083F8EC60491C85F8EC9089B2451806233B
:10BF200085F8EC30491C89B24518491C85F8ECB0FD
:10BF300089B245183A2385F8EC30491C89B2451876
:10BF40003B2385F8EC30491C89B245181F2385F83E
:10BF5000EC30491C89B245182123491C85F8EC3086
:10BF600089B24318491C83F8EC8089B24FF49C7362
:10BF700003E04518491C85F8EC209942F9DB432081
:10BF8000009001AB4FF409729AF80200A16B00F027
:10BF900049F8BDE8FC9F00004C00002070B5064643
:10BFA0001748184C007804281DD16079D8B10A468A
:10BFB00015493046FFF742FDC5B24FF402742046E2
:10BFC000FDF708FFC006FAD504EB46142046FDF73E
:10BFD00001FF00F01F012046FDF742FF29460BA09C
:10BFE000FDF788FF08E00E480078022804D10648D3
:10BFF000FCF73AF90020A074BDE87040FBF72ABCBA
:10C00000960000203A0300208D03002073656E64C3
:10C01000206C656E73203D2025640D0A0000000031
:10C02000660200202DE9F0479946089E15468A468B
:10C030000446082803D94FF0FF30BDE8F0876001BF
:10C040004FF001080830FDF7C5FE00F00F00022890
:10C0500004D0042802D06FF00400EEE78DB1D9F8C7
:10C06000000088B19EB14FF4427000EB44100746C7
:10C07000FDF7B0FE42280DD022280BD06FF006004D
:10C08000DBE76FF00D00D8E76FF00B00D5E76FF03E
:10C090000A00D2E740F6084000EB4410042249466B
:10C0A000FDF7FEFE41F20800310A00EB4410FDF7F7
:10C0B000D7FE41F20810F1B200EB4410FDF7D0FEBC
:10C0C00041F6087000EB4410FDF784FE4FF6FF7157
:10C0D00001EA8020854200D9054608FA04F6DFF817
:10C0E00084802046FFF70EF881463846FDF772FE41
:10C0F00038B1B8F80400064206D04D4504D90020F6
:10C100009BE76FF0030098E74D45EAD82A46514671
:10C11000204600F040F94FF4847000EB44100646CE
:10C120002021FDF79DFE4FF4027000EB44143046D1
:10C13000FDF750FE0028FAD12046FDF74BFE00F037
:10C140001F00C10605D520461021FDF789FE2846AF
:10C1500073E70007F0D520460821FDF781FE6FF058
:10C160000C006AE7140000202DE9F0411D46174637
:10C170000E460446082803D94FF0FF30BDE8F08191
:10C18000012E06D0022E04D0042E02D06FF004003F
:10C19000F4E715F0060F6FF00500EFD185B1012E21
:10C1A00002D0022E0CD103E015F0210FE6D007E0FB
:10C1B000A90601D52906E1D5E90601D52906DDD56F
:10C1C0002046FEF7B5F9600105F0F0014FF00108D7
:10C1D00008303143FDF744FE224E57B97788781C6A
:10C1E00080B2A0F57F417080F03902D14FF4404019
:10C1F00070804FF48160390A00EB4410FDF730FE87
:10C200004FF4A160F9B200EB4410FDF729FE4FF4A2
:10C21000847000EB441007460121FDF721FE3846EB
:10C22000FDF7D8FD0028FAD105F00100B188A04043
:10C230000843B080F18808FA04F08143F1800A498C
:10C24000002021F814000749083108554FF44270C6
:10C2500000EB44152846FDF7BDFD0028FAD060B27A
:10C260008CE7000014000020D402002070B5104CB0
:10C2700005460023A2880121FFF776FF294618B161
:10C280000CA0FDF737FE10E010A0FDF733FE0849C3
:10C290006288891D2846FEF783F9012806D02946C1
:10C2A0000DA0FDF727FE00202070002070BD0000CB
:10C2B0009600002025643A536F636B657420737495
:10C2C000617274204572726F720D0A0025643A4FD4
:10C2D00070656E65640D0A0025643A536F636B6583
:10C2E0007420436F6E6E656374204572726F720DB9
:10C2F0000A0000002DE9F0475FEA02088946064679
:10C3000026D042F6081000EB46152846FDF762FDE0
:10C31000074642F6080000EB46142046FDF75AFD9A
:10C3200007EB002087B2380200EB46101830424677
:10C330004946FDF76DFD07EB080086B2310A20463D
:10C34000FDF78EFDF1B22846BDE8F047FDF788BD48
:10C35000BDE8F0872DE9F041044642F6081000EBF5
:10C3600044150E462846FDF735FD074642F60800FF
:10C3700000EB44142046FDF72DFD07EB0020304470
:10C3800086B2310A2046FDF76BFDF1B22846BDE8C2
:10C39000F041FDF765BD2DE9F0475FEA02088946E7
:10C3A000064626D042F2085000EB46152846FDF717
:10C3B00011FD074642F2084000EB46142046FDF707
:10C3C00009FD07EB002087B2380200EB4610103061
:10C3D00042464946FDF764FD07EB080086B2310A84
:10C3E0002046FDF73DFDF1B22846BDE8F047FDF7D8
:10C3F00037BDBDE8F087007870470170704710B511
:10C40000040A00F0F0014FF4A850FDF729FD214681
:10C41000BDE810404FF4B850FDF722BD704770479B
:10C420007047704710B54FF4A850FDF7D3FC00F0EB
:10C43000F0044FF4B850FDF7CDFC04EB002080B2BF
:10C4400010BD10B54FF4B050FDF7C4FC04464FF4D6
:10C45000C050FDF7BFFC04EB002080B210BD00000F
:10C4600010B50446014606224FF41060FDF7D0FCDB
:10C47000042204F10E019001FDF7CAFC042204F12C
:10C480000A014FF4A060FDF7C3FC0422A11D4FF484
:10C490007060FDF7BDFC07480178A1744178E17434
:10C4A00081782175C07860750248401E0078A075BB
:10C4B00010BD0000250000200020FDF78BBC70B5EA
:10C4C00004464FF4D850FDF785FC20704FF4D0504F
:10C4D000FDF780FC05464FF4C850FDF77BFC05EBEB
:10C4E0000020608070BD2DE9F0410D460646002415
:10C4F00000F099F84FF0FF38AEB10022B05C521C4A
:10C50000204452B244B2082AF8DB102C17DC002475
:10C5100041F60877315D07EB4410FDF7A1FC641C80
:10C5200064B2082CF6DBCDB1002108462A5C401C21
:10C53000114440B249B20828F8DB102902DD404618
:10C54000BDE8F081002441F60866295D06EB441041
:10C55000FDF786FC641C64B2082CF6DB0020EFE7D4
:10C5600010B5C1B2040A4FF4B050FDF779FC214672
:10C57000BDE810404FF4C050FDF772BC10B5044642
:10C58000014606224FF41060FDF78AFC042204F1F4
:10C590000E019001FDF784FC042204F10A014FF41E
:10C5A000A060FDF77DFC0422A11D4FF47060FDF733
:10C5B00077FC0748A17C0170E17C4170217D81708E
:10C5C000617DC1700249A07D491E087010BD000048
:10C5D0002500002010B5044630F03A0002D04FF09C
:10C5E000FF3010BD0020FDF7F5FB40EA04010020FC
:10C5F000FDF736FC002010BD10B5044601784FF45D
:10C60000D850FDF72DFC6088010A4FF4C850FDF7A3
:10C6100027FCA178BDE810404FF4D050FDF720BCB6
:10C62000002070477047F0B585B04FF410640622C3
:10C6300069462046FDF7ECFB0422950102A9284635
:10C64000FDF7E6FB4FF4A066042203A93046FDF790
:10C65000DFFB4FF47067042204A93846FDF7D8FBCE
:10C6600080210020FDF7FCFB0020FDF7B3FB062234
:10C6700069462046FDF714FC042202A92846FDF76E
:10C680000FFC042203A93046FDF70AFC042204A98A
:10C690003846FDF705FC05B0F0BD10B504464FF473
:10C6A0003850FDF797FBC0F38011217000F038007F
:10C6B00001220021202811D038280FD061701028C5
:10C6C0000ED018280CD020280AD0A170082809D034
:10C6D000182807D0202805D0E17010BD6270EEE761
:10C6E000A270F3E7E27010BD10B54FF43850FDF7BB
:10C6F00071FBC00700D0012010BD10B500244FF41D
:10C700003850FDF767FB10F0300F00D001242046B1
:10C7100010BD10B54FF438542046FDF75BFB20F0F8
:10C7200080012046FDF79CFB2046FDF753FB40F0BF
:10C7300080012046BDE81040FDF792BB10B502789D
:10C740000021012A00D140214278012A06D0C27876
:10C750008078012A05D001280BD00CE041F0380187
:10C7600009E0012802D041F0080104E041F018017D
:10C7700001E041F010014FF43850FDF771FBBDE8C6
:10C780001040FFF7C6BF70B504464FF43856304628
:10C79000FDF720FB41064FF0FF351AD520F0380099
:10C7A000012C10D040F038013046FDF759FBFFF75F
:10C7B000B0FF3046FDF70EFB012C07D000F038002B
:10C7C00038B1002070BD40F03001EDE700F03000DE
:10C7D000F6E7284670BD0000F8C7000800000020FA
:10C7E000D402000096720008D8C80008D4020020C5
:10C7F000FC040000249F000845020406082D0102E5
:10C8000003040435060708090214C0100801025782
:10C8100035353030131DC41B081F041A23041A2198
:10C820000413F7C31B08FB0401181AFF0141320A65
:10C830001305AF1B0859041A350401124757495A0A
:10C840006E65745009C7288813672C91F72C0C2942
:10C85000AB942CA8016F4A19083A018F7113100B81
:10C860007C02100C0FB114100140DA0210A9271934
:10C8700010DA8030C2401A0C30A9212910A92129D0
:10C8800010DA2010CA1010A97F2910B9A6DA0820E2
:10C890001910B9201990DA0810DA0410E930E950BB
:10C8A000B9F02910A9512910A9B02910A9F01950DF
:10C8B00011A9712910A9402910A940DA14A0A100DA
:10C8C000114341542B534F434B413D22544350227B
:08C8D0002C2289D9B9F43100D2
:04000005080071314D
:00000001FF
